1:O:N 20150303-22:10:02.877 : 8=FIX.4.4|9=107|35=A|49=1001083|56=77MARKETS|34=1|57=PRICE|52=20150303-22:10:02.873|98=0|108=30|141=Y|553=1001083|554=1234|10=047| 161
1:I:N 20150303-22:10:03.022 : 8=FIX.4.4|9=86|35=A|34=1|49=77MARKETS|50=PRICE|52=20150303-22:10:02.978|56=1001083|98=0|108=30|141=Y|10=038| 139
2:O:N 20150303-22:10:32.880 : 8=FIX.4.4|9=68|35=0|49=1001083|56=77MARKETS|34=2|57=PRICE|52=20150303-22:10:32.880|10=210| 121
2:I:N 20150303-22:10:33.884 : 8=FIX.4.4|9=68|35=0|34=2|49=77MARKETS|50=PRICE|52=20150303-22:10:33.843|56=1001083|10=203| 121
3:O:N 20150303-22:11:02.881 : 8=FIX.4.4|9=68|35=0|49=1001083|56=77MARKETS|34=3|57=PRICE|52=20150303-22:11:02.881|10=210| 121
3:I:N 20150303-22:11:03.884 : 8=FIX.4.4|9=68|35=0|34=3|49=77MARKETS|50=PRICE|52=20150303-22:11:03.843|56=1001083|10=202| 121
4:O:N 20150303-22:11:32.881 : 8=FIX.4.4|9=68|35=0|49=1001083|56=77MARKETS|34=4|57=PRICE|52=20150303-22:11:32.881|10=214| 121
4:I:N 20150303-22:11:33.884 : 8=FIX.4.4|9=68|35=0|34=4|49=77MARKETS|50=PRICE|52=20150303-22:11:33.843|56=1001083|10=206| 121
5:O:N 20150303-22:12:02.882 : 8=FIX.4.4|9=68|35=0|49=1001083|56=77MARKETS|34=5|57=PRICE|52=20150303-22:12:02.882|10=214| 121
5:I:N 20150303-22:12:03.884 : 8=FIX.4.4|9=68|35=0|34=5|49=77MARKETS|50=PRICE|52=20150303-22:12:03.843|56=1001083|10=205| 121
6:O:N 20150303-22:12:32.882 : 8=FIX.4.4|9=68|35=0|49=1001083|56=77MARKETS|34=6|57=PRICE|52=20150303-22:12:32.882|10=218| 121
6:I:N 20150303-22:12:33.884 : 8=FIX.4.4|9=68|35=0|34=6|49=77MARKETS|50=PRICE|52=20150303-22:12:33.843|56=1001083|10=209| 121
7:O:N 20150303-22:13:02.882 : 8=FIX.4.4|9=68|35=0|49=1001083|56=77MARKETS|34=7|57=PRICE|52=20150303-22:13:02.882|10=217| 121
7:I:N 20150303-22:13:03.884 : 8=FIX.4.4|9=68|35=0|34=7|49=77MARKETS|50=PRICE|52=20150303-22:13:03.843|56=1001083|10=208| 121
8:O:N 20150303-22:13:32.883 : 8=FIX.4.4|9=68|35=0|49=1001083|56=77MARKETS|34=8|57=PRICE|52=20150303-22:13:32.883|10=222| 121
8:I:N 20150303-22:13:33.884 : 8=FIX.4.4|9=68|35=0|34=8|49=77MARKETS|50=PRICE|52=20150303-22:13:33.843|56=1001083|10=212| 121
9:O:N 20150303-22:14:02.883 : 8=FIX.4.4|9=68|35=0|49=1001083|56=77MARKETS|34=9|57=PRICE|52=20150303-22:14:02.883|10=221| 121
9:I:N 20150303-22:14:03.884 : 8=FIX.4.4|9=68|35=0|34=9|49=77MARKETS|50=PRICE|52=20150303-22:14:03.843|56=1001083|10=211| 121
10:O:N 20150303-22:14:32.884 : 8=FIX.4.4|9=69|35=0|49=1001083|56=77MARKETS|34=10|57=PRICE|52=20150303-22:14:32.884|10=010| 123
10:I:N 20150303-22:14:33.884 : 8=FIX.4.4|9=69|35=0|34=10|49=77MARKETS|50=PRICE|52=20150303-22:14:33.843|56=1001083|10=255| 123
11:O:N 20150303-22:15:02.885 : 8=FIX.4.4|9=69|35=0|49=1001083|56=77MARKETS|34=11|57=PRICE|52=20150303-22:15:02.884|10=009| 123
11:I:N 20150303-22:15:03.884 : 8=FIX.4.4|9=69|35=0|34=11|49=77MARKETS|50=PRICE|52=20150303-22:15:03.843|56=1001083|10=254| 123
12:O:N 20150303-22:15:32.885 : 8=FIX.4.4|9=69|35=0|49=1001083|56=77MARKETS|34=12|57=PRICE|52=20150303-22:15:32.885|10=014| 123
12:I:N 20150303-22:15:33.884 : 8=FIX.4.4|9=69|35=0|34=12|49=77MARKETS|50=PRICE|52=20150303-22:15:33.843|56=1001083|10=002| 123
13:O:N 20150303-22:16:02.885 : 8=FIX.4.4|9=69|35=0|49=1001083|56=77MARKETS|34=13|57=PRICE|52=20150303-22:16:02.885|10=013| 123
13:I:N 20150303-22:16:03.884 : 8=FIX.4.4|9=69|35=0|34=13|49=77MARKETS|50=PRICE|52=20150303-22:16:03.843|56=1001083|10=001| 123
14:O:N 20150303-22:16:32.886 : 8=FIX.4.4|9=69|35=0|49=1001083|56=77MARKETS|34=14|57=PRICE|52=20150303-22:16:32.885|10=017| 123
14:I:N 20150303-22:16:33.884 : 8=FIX.4.4|9=69|35=0|34=14|49=77MARKETS|50=PRICE|52=20150303-22:16:33.843|56=1001083|10=005| 123
15:O:N 20150303-22:17:02.886 : 8=FIX.4.4|9=69|35=0|49=1001083|56=77MARKETS|34=15|57=PRICE|52=20150303-22:17:02.886|10=017| 123
15:I:N 20150303-22:17:03.884 : 8=FIX.4.4|9=69|35=0|34=15|49=77MARKETS|50=PRICE|52=20150303-22:17:03.843|56=1001083|10=004| 123
16:O:N 20150303-22:17:32.886 : 8=FIX.4.4|9=69|35=0|49=1001083|56=77MARKETS|34=16|57=PRICE|52=20150303-22:17:32.886|10=021| 123
16:I:N 20150303-22:17:33.884 : 8=FIX.4.4|9=69|35=0|34=16|49=77MARKETS|50=PRICE|52=20150303-22:17:33.843|56=1001083|10=008| 123
17:O:N 20150303-22:18:02.887 : 8=FIX.4.4|9=69|35=0|49=1001083|56=77MARKETS|34=17|57=PRICE|52=20150303-22:18:02.887|10=021| 123
17:I:N 20150303-22:18:03.884 : 8=FIX.4.4|9=69|35=0|34=17|49=77MARKETS|50=PRICE|52=20150303-22:18:03.843|56=1001083|10=007| 123
18:O:N 20150303-22:18:32.887 : 8=FIX.4.4|9=69|35=0|49=1001083|56=77MARKETS|34=18|57=PRICE|52=20150303-22:18:32.887|10=025| 123
18:I:N 20150303-22:18:33.884 : 8=FIX.4.4|9=69|35=0|34=18|49=77MARKETS|50=PRICE|52=20150303-22:18:33.843|56=1001083|10=011| 123
19:O:N 20150303-22:19:02.887 : 8=FIX.4.4|9=69|35=0|49=1001083|56=77MARKETS|34=19|57=PRICE|52=20150303-22:19:02.887|10=024| 123
19:I:N 20150303-22:19:03.884 : 8=FIX.4.4|9=69|35=0|34=19|49=77MARKETS|50=PRICE|52=20150303-22:19:03.843|56=1001083|10=010| 123
20:O:N 20150303-22:19:32.888 : 8=FIX.4.4|9=69|35=0|49=1001083|56=77MARKETS|34=20|57=PRICE|52=20150303-22:19:32.888|10=020| 123
20:I:N 20150303-22:19:33.884 : 8=FIX.4.4|9=69|35=0|34=20|49=77MARKETS|50=PRICE|52=20150303-22:19:33.843|56=1001083|10=005| 123
21:O:N 20150303-22:20:02.888 : 8=FIX.4.4|9=69|35=0|49=1001083|56=77MARKETS|34=21|57=PRICE|52=20150303-22:20:02.888|10=010| 123
21:I:N 20150303-22:20:03.884 : 8=FIX.4.4|9=69|35=0|34=21|49=77MARKETS|50=PRICE|52=20150303-22:20:03.843|56=1001083|10=251| 123
22:O:N 20150303-22:20:32.889 : 8=FIX.4.4|9=69|35=0|49=1001083|56=77MARKETS|34=22|57=PRICE|52=20150303-22:20:32.889|10=015| 123
22:I:N 20150303-22:20:33.884 : 8=FIX.4.4|9=69|35=0|34=22|49=77MARKETS|50=PRICE|52=20150303-22:20:33.843|56=1001083|10=255| 123
23:O:N 20150303-22:21:02.889 : 8=FIX.4.4|9=69|35=0|49=1001083|56=77MARKETS|34=23|57=PRICE|52=20150303-22:21:02.889|10=014| 123
23:I:N 20150303-22:21:03.884 : 8=FIX.4.4|9=69|35=0|34=23|49=77MARKETS|50=PRICE|52=20150303-22:21:03.843|56=1001083|10=254| 123
24:O:N 20150303-22:21:32.890 : 8=FIX.4.4|9=69|35=0|49=1001083|56=77MARKETS|34=24|57=PRICE|52=20150303-22:21:32.889|10=018| 123
24:I:N 20150303-22:21:33.884 : 8=FIX.4.4|9=69|35=0|34=24|49=77MARKETS|50=PRICE|52=20150303-22:21:33.843|56=1001083|10=002| 123
25:O:N 20150303-22:22:02.890 : 8=FIX.4.4|9=69|35=0|49=1001083|56=77MARKETS|34=25|57=PRICE|52=20150303-22:22:02.890|10=009| 123
25:I:N 20150303-22:22:03.884 : 8=FIX.4.4|9=69|35=0|34=25|49=77MARKETS|50=PRICE|52=20150303-22:22:03.843|56=1001083|10=001| 123
26:O:N 20150303-22:22:32.890 : 8=FIX.4.4|9=69|35=0|49=1001083|56=77MARKETS|34=26|57=PRICE|52=20150303-22:22:32.890|10=013| 123
26:I:N 20150303-22:22:33.884 : 8=FIX.4.4|9=69|35=0|34=26|49=77MARKETS|50=PRICE|52=20150303-22:22:33.843|56=1001083|10=005| 123
27:O:N 20150303-22:23:02.891 : 8=FIX.4.4|9=69|35=0|49=1001083|56=77MARKETS|34=27|57=PRICE|52=20150303-22:23:02.891|10=013| 123
27:I:N 20150303-22:23:03.884 : 8=FIX.4.4|9=69|35=0|34=27|49=77MARKETS|50=PRICE|52=20150303-22:23:03.843|56=1001083|10=004| 123
28:O:N 20150303-22:23:32.891 : 8=FIX.4.4|9=69|35=0|49=1001083|56=77MARKETS|34=28|57=PRICE|52=20150303-22:23:32.891|10=017| 123
28:I:N 20150303-22:23:33.884 : 8=FIX.4.4|9=69|35=0|34=28|49=77MARKETS|50=PRICE|52=20150303-22:23:33.843|56=1001083|10=008| 123
29:O:N 20150303-22:24:02.892 : 8=FIX.4.4|9=69|35=0|49=1001083|56=77MARKETS|34=29|57=PRICE|52=20150303-22:24:02.891|10=016| 123
29:I:N 20150303-22:24:03.884 : 8=FIX.4.4|9=69|35=0|34=29|49=77MARKETS|50=PRICE|52=20150303-22:24:03.843|56=1001083|10=007| 123
30:O:N 20150303-22:24:32.892 : 8=FIX.4.4|9=69|35=0|49=1001083|56=77MARKETS|34=30|57=PRICE|52=20150303-22:24:32.892|10=012| 123
30:I:N 20150303-22:24:33.884 : 8=FIX.4.4|9=69|35=0|34=30|49=77MARKETS|50=PRICE|52=20150303-22:24:33.843|56=1001083|10=002| 123
31:O:N 20150303-22:25:02.892 : 8=FIX.4.4|9=69|35=0|49=1001083|56=77MARKETS|34=31|57=PRICE|52=20150303-22:25:02.892|10=011| 123
31:I:N 20150303-22:25:03.884 : 8=FIX.4.4|9=69|35=0|34=31|49=77MARKETS|50=PRICE|52=20150303-22:25:03.843|56=1001083|10=001| 123
32:O:N 20150303-22:25:32.893 : 8=FIX.4.4|9=69|35=0|49=1001083|56=77MARKETS|34=32|57=PRICE|52=20150303-22:25:32.893|10=016| 123
32:I:N 20150303-22:25:33.883 : 8=FIX.4.4|9=69|35=0|34=32|49=77MARKETS|50=PRICE|52=20150303-22:25:33.843|56=1001083|10=005| 123
33:O:N 20150303-22:26:02.893 : 8=FIX.4.4|9=69|35=0|49=1001083|56=77MARKETS|34=33|57=PRICE|52=20150303-22:26:02.893|10=015| 123
33:I:N 20150303-22:26:03.883 : 8=FIX.4.4|9=69|35=0|34=33|49=77MARKETS|50=PRICE|52=20150303-22:26:03.843|56=1001083|10=004| 123
34:O:N 20150303-22:26:32.894 : 8=FIX.4.4|9=69|35=0|49=1001083|56=77MARKETS|34=34|57=PRICE|52=20150303-22:26:32.893|10=019| 123
34:I:N 20150303-22:26:33.883 : 8=FIX.4.4|9=69|35=0|34=34|49=77MARKETS|50=PRICE|52=20150303-22:26:33.843|56=1001083|10=008| 123
35:O:N 20150303-22:27:02.894 : 8=FIX.4.4|9=69|35=0|49=1001083|56=77MARKETS|34=35|57=PRICE|52=20150303-22:27:02.894|10=019| 123
35:I:N 20150303-22:27:03.883 : 8=FIX.4.4|9=69|35=0|34=35|49=77MARKETS|50=PRICE|52=20150303-22:27:03.843|56=1001083|10=007| 123
36:O:N 20150303-22:27:32.894 : 8=FIX.4.4|9=69|35=0|49=1001083|56=77MARKETS|34=36|57=PRICE|52=20150303-22:27:32.894|10=023| 123
36:I:N 20150303-22:27:33.883 : 8=FIX.4.4|9=69|35=0|34=36|49=77MARKETS|50=PRICE|52=20150303-22:27:33.843|56=1001083|10=011| 123
37:O:N 20150303-22:28:02.895 : 8=FIX.4.4|9=69|35=0|49=1001083|56=77MARKETS|34=37|57=PRICE|52=20150303-22:28:02.895|10=023| 123
37:I:N 20150303-22:28:03.883 : 8=FIX.4.4|9=69|35=0|34=37|49=77MARKETS|50=PRICE|52=20150303-22:28:03.843|56=1001083|10=010| 123
38:O:N 20150303-22:28:32.895 : 8=FIX.4.4|9=69|35=0|49=1001083|56=77MARKETS|34=38|57=PRICE|52=20150303-22:28:32.895|10=027| 123
38:I:N 20150303-22:28:33.883 : 8=FIX.4.4|9=69|35=0|34=38|49=77MARKETS|50=PRICE|52=20150303-22:28:33.843|56=1001083|10=014| 123
39:O:N 20150303-22:29:02.896 : 8=FIX.4.4|9=69|35=0|49=1001083|56=77MARKETS|34=39|57=PRICE|52=20150303-22:29:02.895|10=026| 123
39:I:N 20150303-22:29:03.883 : 8=FIX.4.4|9=69|35=0|34=39|49=77MARKETS|50=PRICE|52=20150303-22:29:03.843|56=1001083|10=013| 123
40:O:N 20150303-22:29:32.896 : 8=FIX.4.4|9=69|35=0|49=1001083|56=77MARKETS|34=40|57=PRICE|52=20150303-22:29:32.896|10=022| 123
40:I:N 20150303-22:29:33.883 : 8=FIX.4.4|9=69|35=0|34=40|49=77MARKETS|50=PRICE|52=20150303-22:29:33.843|56=1001083|10=008| 123
41:O:N 20150303-22:30:02.896 : 8=FIX.4.4|9=69|35=0|49=1001083|56=77MARKETS|34=41|57=PRICE|52=20150303-22:30:02.896|10=012| 123
41:I:N 20150303-22:30:03.883 : 8=FIX.4.4|9=69|35=0|34=41|49=77MARKETS|50=PRICE|52=20150303-22:30:03.843|56=1001083|10=254| 123
42:O:N 20150303-22:30:32.897 : 8=FIX.4.4|9=69|35=0|49=1001083|56=77MARKETS|34=42|57=PRICE|52=20150303-22:30:32.897|10=017| 123
42:I:N 20150303-22:30:33.883 : 8=FIX.4.4|9=69|35=0|34=42|49=77MARKETS|50=PRICE|52=20150303-22:30:33.843|56=1001083|10=002| 123
43:O:N 20150303-22:31:02.897 : 8=FIX.4.4|9=69|35=0|49=1001083|56=77MARKETS|34=43|57=PRICE|52=20150303-22:31:02.897|10=016| 123
43:I:N 20150303-22:31:03.883 : 8=FIX.4.4|9=69|35=0|34=43|49=77MARKETS|50=PRICE|52=20150303-22:31:03.843|56=1001083|10=001| 123
44:O:N 20150303-22:31:32.898 : 8=FIX.4.4|9=69|35=0|49=1001083|56=77MARKETS|34=44|57=PRICE|52=20150303-22:31:32.898|10=021| 123
44:I:N 20150303-22:31:33.883 : 8=FIX.4.4|9=69|35=0|34=44|49=77MARKETS|50=PRICE|52=20150303-22:31:33.843|56=1001083|10=005| 123
45:O:N 20150303-22:32:02.898 : 8=FIX.4.4|9=69|35=0|49=1001083|56=77MARKETS|34=45|57=PRICE|52=20150303-22:32:02.898|10=020| 123
45:I:N 20150303-22:32:03.883 : 8=FIX.4.4|9=69|35=0|34=45|49=77MARKETS|50=PRICE|52=20150303-22:32:03.843|56=1001083|10=004| 123
46:O:N 20150303-22:32:32.899 : 8=FIX.4.4|9=69|35=0|49=1001083|56=77MARKETS|34=46|57=PRICE|52=20150303-22:32:32.898|10=024| 123
46:I:N 20150303-22:32:33.883 : 8=FIX.4.4|9=69|35=0|34=46|49=77MARKETS|50=PRICE|52=20150303-22:32:33.843|56=1001083|10=008| 123
47:O:N 20150303-22:33:02.899 : 8=FIX.4.4|9=69|35=0|49=1001083|56=77MARKETS|34=47|57=PRICE|52=20150303-22:33:02.899|10=024| 123
47:I:N 20150303-22:33:03.883 : 8=FIX.4.4|9=69|35=0|34=47|49=77MARKETS|50=PRICE|52=20150303-22:33:03.843|56=1001083|10=007| 123
48:O:N 20150303-22:33:32.899 : 8=FIX.4.4|9=69|35=0|49=1001083|56=77MARKETS|34=48|57=PRICE|52=20150303-22:33:32.899|10=028| 123
48:I:N 20150303-22:33:33.883 : 8=FIX.4.4|9=69|35=0|34=48|49=77MARKETS|50=PRICE|52=20150303-22:33:33.843|56=1001083|10=011| 123
49:O:N 20150303-22:34:02.900 : 8=FIX.4.4|9=69|35=0|49=1001083|56=77MARKETS|34=49|57=PRICE|52=20150303-22:34:02.900|10=010| 123
49:I:N 20150303-22:34:03.883 : 8=FIX.4.4|9=69|35=0|34=49|49=77MARKETS|50=PRICE|52=20150303-22:34:03.843|56=1001083|10=010| 123
50:O:N 20150303-22:34:32.900 : 8=FIX.4.4|9=69|35=0|49=1001083|56=77MARKETS|34=50|57=PRICE|52=20150303-22:34:32.900|10=005| 123
50:I:N 20150303-22:34:33.883 : 8=FIX.4.4|9=69|35=0|34=50|49=77MARKETS|50=PRICE|52=20150303-22:34:33.843|56=1001083|10=005| 123
51:O:N 20150303-22:35:02.901 : 8=FIX.4.4|9=69|35=0|49=1001083|56=77MARKETS|34=51|57=PRICE|52=20150303-22:35:02.900|10=004| 123
51:I:N 20150303-22:35:03.883 : 8=FIX.4.4|9=69|35=0|34=51|49=77MARKETS|50=PRICE|52=20150303-22:35:03.843|56=1001083|10=004| 123
52:O:N 20150303-22:35:32.901 : 8=FIX.4.4|9=69|35=0|49=1001083|56=77MARKETS|34=52|57=PRICE|52=20150303-22:35:32.901|10=009| 123
52:I:N 20150303-22:35:33.883 : 8=FIX.4.4|9=69|35=0|34=52|49=77MARKETS|50=PRICE|52=20150303-22:35:33.843|56=1001083|10=008| 123
53:O:N 20150303-22:36:02.901 : 8=FIX.4.4|9=69|35=0|49=1001083|56=77MARKETS|34=53|57=PRICE|52=20150303-22:36:02.901|10=008| 123
53:I:N 20150303-22:36:03.883 : 8=FIX.4.4|9=69|35=0|34=53|49=77MARKETS|50=PRICE|52=20150303-22:36:03.843|56=1001083|10=007| 123
54:O:N 20150303-22:36:32.902 : 8=FIX.4.4|9=69|35=0|49=1001083|56=77MARKETS|34=54|57=PRICE|52=20150303-22:36:32.902|10=013| 123
54:I:N 20150303-22:36:33.883 : 8=FIX.4.4|9=69|35=0|34=54|49=77MARKETS|50=PRICE|52=20150303-22:36:33.843|56=1001083|10=011| 123
55:O:N 20150303-22:37:02.902 : 8=FIX.4.4|9=69|35=0|49=1001083|56=77MARKETS|34=55|57=PRICE|52=20150303-22:37:02.902|10=012| 123
55:I:N 20150303-22:37:03.883 : 8=FIX.4.4|9=69|35=0|34=55|49=77MARKETS|50=PRICE|52=20150303-22:37:03.843|56=1001083|10=010| 123
56:O:N 20150303-22:37:32.902 : 8=FIX.4.4|9=69|35=0|49=1001083|56=77MARKETS|34=56|57=PRICE|52=20150303-22:37:32.902|10=016| 123
56:I:N 20150303-22:37:33.883 : 8=FIX.4.4|9=69|35=0|34=56|49=77MARKETS|50=PRICE|52=20150303-22:37:33.843|56=1001083|10=014| 123
57:O:N 20150303-22:38:02.903 : 8=FIX.4.4|9=69|35=0|49=1001083|56=77MARKETS|34=57|57=PRICE|52=20150303-22:38:02.903|10=016| 123
57:I:N 20150303-22:38:03.883 : 8=FIX.4.4|9=69|35=0|34=57|49=77MARKETS|50=PRICE|52=20150303-22:38:03.843|56=1001083|10=013| 123
58:O:N 20150303-22:38:32.903 : 8=FIX.4.4|9=69|35=0|49=1001083|56=77MARKETS|34=58|57=PRICE|52=20150303-22:38:32.903|10=020| 123
58:I:N 20150303-22:38:33.883 : 8=FIX.4.4|9=69|35=0|34=58|49=77MARKETS|50=PRICE|52=20150303-22:38:33.843|56=1001083|10=017| 123
59:O:N 20150303-22:39:02.903 : 8=FIX.4.4|9=69|35=0|49=1001083|56=77MARKETS|34=59|57=PRICE|52=20150303-22:39:02.903|10=019| 123
59:I:N 20150303-22:39:03.883 : 8=FIX.4.4|9=69|35=0|34=59|49=77MARKETS|50=PRICE|52=20150303-22:39:03.843|56=1001083|10=016| 123
60:O:N 20150303-22:39:32.904 : 8=FIX.4.4|9=69|35=0|49=1001083|56=77MARKETS|34=60|57=PRICE|52=20150303-22:39:32.904|10=015| 123
60:I:N 20150303-22:39:33.883 : 8=FIX.4.4|9=69|35=0|34=60|49=77MARKETS|50=PRICE|52=20150303-22:39:33.843|56=1001083|10=011| 123
61:O:N 20150303-22:40:02.904 : 8=FIX.4.4|9=69|35=0|49=1001083|56=77MARKETS|34=61|57=PRICE|52=20150303-22:40:02.904|10=005| 123
61:I:N 20150303-22:40:03.883 : 8=FIX.4.4|9=69|35=0|34=61|49=77MARKETS|50=PRICE|52=20150303-22:40:03.843|56=1001083|10=001| 123
62:O:N 20150303-22:40:32.905 : 8=FIX.4.4|9=69|35=0|49=1001083|56=77MARKETS|34=62|57=PRICE|52=20150303-22:40:32.905|10=010| 123
62:I:N 20150303-22:40:33.883 : 8=FIX.4.4|9=69|35=0|34=62|49=77MARKETS|50=PRICE|52=20150303-22:40:33.843|56=1001083|10=005| 123
63:O:N 20150303-22:41:02.905 : 8=FIX.4.4|9=69|35=0|49=1001083|56=77MARKETS|34=63|57=PRICE|52=20150303-22:41:02.905|10=009| 123
63:I:N 20150303-22:41:03.883 : 8=FIX.4.4|9=69|35=0|34=63|49=77MARKETS|50=PRICE|52=20150303-22:41:03.843|56=1001083|10=004| 123
64:O:N 20150303-22:41:32.905 : 8=FIX.4.4|9=69|35=0|49=1001083|56=77MARKETS|34=64|57=PRICE|52=20150303-22:41:32.905|10=013| 123
64:I:N 20150303-22:41:33.883 : 8=FIX.4.4|9=69|35=0|34=64|49=77MARKETS|50=PRICE|52=20150303-22:41:33.843|56=1001083|10=008| 123
65:O:N 20150303-22:42:02.906 : 8=FIX.4.4|9=69|35=0|49=1001083|56=77MARKETS|34=65|57=PRICE|52=20150303-22:42:02.906|10=013| 123
65:I:N 20150303-22:42:03.883 : 8=FIX.4.4|9=69|35=0|34=65|49=77MARKETS|50=PRICE|52=20150303-22:42:03.843|56=1001083|10=007| 123
66:O:N 20150303-22:42:32.906 : 8=FIX.4.4|9=69|35=0|49=1001083|56=77MARKETS|34=66|57=PRICE|52=20150303-22:42:32.906|10=017| 123
66:I:N 20150303-22:42:33.883 : 8=FIX.4.4|9=69|35=0|34=66|49=77MARKETS|50=PRICE|52=20150303-22:42:33.843|56=1001083|10=011| 123
67:O:N 20150303-22:43:02.907 : 8=FIX.4.4|9=69|35=0|49=1001083|56=77MARKETS|34=67|57=PRICE|52=20150303-22:43:02.907|10=017| 123
67:I:N 20150303-22:43:03.883 : 8=FIX.4.4|9=69|35=0|34=67|49=77MARKETS|50=PRICE|52=20150303-22:43:03.843|56=1001083|10=010| 123
68:O:N 20150303-22:43:32.907 : 8=FIX.4.4|9=69|35=0|49=1001083|56=77MARKETS|34=68|57=PRICE|52=20150303-22:43:32.907|10=021| 123
68:I:N 20150303-22:43:33.883 : 8=FIX.4.4|9=69|35=0|34=68|49=77MARKETS|50=PRICE|52=20150303-22:43:33.843|56=1001083|10=014| 123
69:O:N 20150303-22:44:02.908 : 8=FIX.4.4|9=69|35=0|49=1001083|56=77MARKETS|34=69|57=PRICE|52=20150303-22:44:02.908|10=021| 123
69:I:N 20150303-22:44:03.883 : 8=FIX.4.4|9=69|35=0|34=69|49=77MARKETS|50=PRICE|52=20150303-22:44:03.843|56=1001083|10=013| 123
70:O:N 20150303-22:44:32.908 : 8=FIX.4.4|9=69|35=0|49=1001083|56=77MARKETS|34=70|57=PRICE|52=20150303-22:44:32.908|10=016| 123
70:I:N 20150303-22:44:33.883 : 8=FIX.4.4|9=69|35=0|34=70|49=77MARKETS|50=PRICE|52=20150303-22:44:33.843|56=1001083|10=008| 123
71:O:N 20150303-22:45:02.909 : 8=FIX.4.4|9=69|35=0|49=1001083|56=77MARKETS|34=71|57=PRICE|52=20150303-22:45:02.908|10=015| 123
71:I:N 20150303-22:45:03.883 : 8=FIX.4.4|9=69|35=0|34=71|49=77MARKETS|50=PRICE|52=20150303-22:45:03.843|56=1001083|10=007| 123
72:O:N 20150303-22:45:32.909 : 8=FIX.4.4|9=69|35=0|49=1001083|56=77MARKETS|34=72|57=PRICE|52=20150303-22:45:32.909|10=020| 123
72:I:N 20150303-22:45:33.883 : 8=FIX.4.4|9=69|35=0|34=72|49=77MARKETS|50=PRICE|52=20150303-22:45:33.843|56=1001083|10=011| 123
73:O:N 20150303-22:46:02.909 : 8=FIX.4.4|9=69|35=0|49=1001083|56=77MARKETS|34=73|57=PRICE|52=20150303-22:46:02.909|10=019| 123
73:I:N 20150303-22:46:03.883 : 8=FIX.4.4|9=69|35=0|34=73|49=77MARKETS|50=PRICE|52=20150303-22:46:03.843|56=1001083|10=010| 123
74:O:N 20150303-22:46:32.910 : 8=FIX.4.4|9=69|35=0|49=1001083|56=77MARKETS|34=74|57=PRICE|52=20150303-22:46:32.910|10=015| 123
74:I:N 20150303-22:46:33.883 : 8=FIX.4.4|9=69|35=0|34=74|49=77MARKETS|50=PRICE|52=20150303-22:46:33.843|56=1001083|10=014| 123
75:O:N 20150303-22:47:02.910 : 8=FIX.4.4|9=69|35=0|49=1001083|56=77MARKETS|34=75|57=PRICE|52=20150303-22:47:02.910|10=014| 123
75:I:N 20150303-22:47:03.883 : 8=FIX.4.4|9=69|35=0|34=75|49=77MARKETS|50=PRICE|52=20150303-22:47:03.843|56=1001083|10=013| 123
76:O:N 20150303-22:47:32.910 : 8=FIX.4.4|9=69|35=0|49=1001083|56=77MARKETS|34=76|57=PRICE|52=20150303-22:47:32.910|10=018| 123
76:I:N 20150303-22:47:33.883 : 8=FIX.4.4|9=69|35=0|34=76|49=77MARKETS|50=PRICE|52=20150303-22:47:33.843|56=1001083|10=017| 123
77:O:N 20150303-22:48:02.911 : 8=FIX.4.4|9=69|35=0|49=1001083|56=77MARKETS|34=77|57=PRICE|52=20150303-22:48:02.911|10=018| 123
77:I:N 20150303-22:48:03.883 : 8=FIX.4.4|9=69|35=0|34=77|49=77MARKETS|50=PRICE|52=20150303-22:48:03.843|56=1001083|10=016| 123
78:O:N 20150303-22:48:32.911 : 8=FIX.4.4|9=69|35=0|49=1001083|56=77MARKETS|34=78|57=PRICE|52=20150303-22:48:32.911|10=022| 123
78:I:N 20150303-22:48:33.883 : 8=FIX.4.4|9=69|35=0|34=78|49=77MARKETS|50=PRICE|52=20150303-22:48:33.843|56=1001083|10=020| 123
79:O:N 20150303-22:49:02.911 : 8=FIX.4.4|9=69|35=0|49=1001083|56=77MARKETS|34=79|57=PRICE|52=20150303-22:49:02.911|10=021| 123
79:I:N 20150303-22:49:03.883 : 8=FIX.4.4|9=69|35=0|34=79|49=77MARKETS|50=PRICE|52=20150303-22:49:03.843|56=1001083|10=019| 123
80:O:N 20150303-22:49:32.912 : 8=FIX.4.4|9=69|35=0|49=1001083|56=77MARKETS|34=80|57=PRICE|52=20150303-22:49:32.912|10=017| 123
80:I:N 20150303-22:49:33.883 : 8=FIX.4.4|9=69|35=0|34=80|49=77MARKETS|50=PRICE|52=20150303-22:49:33.843|56=1001083|10=014| 123
81:O:N 20150303-22:50:02.912 : 8=FIX.4.4|9=69|35=0|49=1001083|56=77MARKETS|34=81|57=PRICE|52=20150303-22:50:02.912|10=007| 123
81:I:N 20150303-22:50:03.883 : 8=FIX.4.4|9=69|35=0|34=81|49=77MARKETS|50=PRICE|52=20150303-22:50:03.843|56=1001083|10=004| 123
82:O:N 20150303-22:50:32.913 : 8=FIX.4.4|9=69|35=0|49=1001083|56=77MARKETS|34=82|57=PRICE|52=20150303-22:50:32.913|10=012| 123
82:I:N 20150303-22:50:33.883 : 8=FIX.4.4|9=69|35=0|34=82|49=77MARKETS|50=PRICE|52=20150303-22:50:33.843|56=1001083|10=008| 123
83:O:N 20150303-22:51:02.913 : 8=FIX.4.4|9=69|35=0|49=1001083|56=77MARKETS|34=83|57=PRICE|52=20150303-22:51:02.913|10=011| 123
83:I:N 20150303-22:51:03.883 : 8=FIX.4.4|9=69|35=0|34=83|49=77MARKETS|50=PRICE|52=20150303-22:51:03.843|56=1001083|10=007| 123
84:O:N 20150303-22:51:32.913 : 8=FIX.4.4|9=69|35=0|49=1001083|56=77MARKETS|34=84|57=PRICE|52=20150303-22:51:32.913|10=015| 123
84:I:N 20150303-22:51:33.883 : 8=FIX.4.4|9=69|35=0|34=84|49=77MARKETS|50=PRICE|52=20150303-22:51:33.843|56=1001083|10=011| 123
85:O:N 20150303-22:52:02.914 : 8=FIX.4.4|9=69|35=0|49=1001083|56=77MARKETS|34=85|57=PRICE|52=20150303-22:52:02.914|10=015| 123
85:I:N 20150303-22:52:03.883 : 8=FIX.4.4|9=69|35=0|34=85|49=77MARKETS|50=PRICE|52=20150303-22:52:03.843|56=1001083|10=010| 123
86:O:N 20150303-22:52:32.914 : 8=FIX.4.4|9=69|35=0|49=1001083|56=77MARKETS|34=86|57=PRICE|52=20150303-22:52:32.914|10=019| 123
86:I:N 20150303-22:52:33.883 : 8=FIX.4.4|9=69|35=0|34=86|49=77MARKETS|50=PRICE|52=20150303-22:52:33.843|56=1001083|10=014| 123
87:O:N 20150303-22:53:02.914 : 8=FIX.4.4|9=69|35=0|49=1001083|56=77MARKETS|34=87|57=PRICE|52=20150303-22:53:02.914|10=018| 123
87:I:N 20150303-22:53:03.883 : 8=FIX.4.4|9=69|35=0|34=87|49=77MARKETS|50=PRICE|52=20150303-22:53:03.843|56=1001083|10=013| 123
88:O:N 20150303-22:53:32.915 : 8=FIX.4.4|9=69|35=0|49=1001083|56=77MARKETS|34=88|57=PRICE|52=20150303-22:53:32.915|10=023| 123
88:I:N 20150303-22:53:33.883 : 8=FIX.4.4|9=69|35=0|34=88|49=77MARKETS|50=PRICE|52=20150303-22:53:33.843|56=1001083|10=017| 123
89:O:N 20150303-22:54:02.915 : 8=FIX.4.4|9=69|35=0|49=1001083|56=77MARKETS|34=89|57=PRICE|52=20150303-22:54:02.915|10=022| 123
89:I:N 20150303-22:54:03.883 : 8=FIX.4.4|9=69|35=0|34=89|49=77MARKETS|50=PRICE|52=20150303-22:54:03.843|56=1001083|10=016| 123
90:O:N 20150303-22:54:32.915 : 8=FIX.4.4|9=69|35=0|49=1001083|56=77MARKETS|34=90|57=PRICE|52=20150303-22:54:32.915|10=017| 123
90:I:N 20150303-22:54:33.883 : 8=FIX.4.4|9=69|35=0|34=90|49=77MARKETS|50=PRICE|52=20150303-22:54:33.843|56=1001083|10=011| 123
91:O:N 20150303-22:55:02.916 : 8=FIX.4.4|9=69|35=0|49=1001083|56=77MARKETS|34=91|57=PRICE|52=20150303-22:55:02.916|10=017| 123
91:I:N 20150303-22:55:03.883 : 8=FIX.4.4|9=69|35=0|34=91|49=77MARKETS|50=PRICE|52=20150303-22:55:03.843|56=1001083|10=010| 123
92:O:N 20150303-22:55:32.916 : 8=FIX.4.4|9=69|35=0|49=1001083|56=77MARKETS|34=92|57=PRICE|52=20150303-22:55:32.916|10=021| 123
92:I:N 20150303-22:55:33.883 : 8=FIX.4.4|9=69|35=0|34=92|49=77MARKETS|50=PRICE|52=20150303-22:55:33.843|56=1001083|10=014| 123
93:O:N 20150303-22:56:02.917 : 8=FIX.4.4|9=69|35=0|49=1001083|56=77MARKETS|34=93|57=PRICE|52=20150303-22:56:02.917|10=021| 123
93:I:N 20150303-22:56:03.883 : 8=FIX.4.4|9=69|35=0|34=93|49=77MARKETS|50=PRICE|52=20150303-22:56:03.843|56=1001083|10=013| 123
94:O:N 20150303-22:56:32.917 : 8=FIX.4.4|9=69|35=0|49=1001083|56=77MARKETS|34=94|57=PRICE|52=20150303-22:56:32.917|10=025| 123
94:I:N 20150303-22:56:33.883 : 8=FIX.4.4|9=69|35=0|34=94|49=77MARKETS|50=PRICE|52=20150303-22:56:33.843|56=1001083|10=017| 123
95:O:N 20150303-22:57:02.917 : 8=FIX.4.4|9=69|35=0|49=1001083|56=77MARKETS|34=95|57=PRICE|52=20150303-22:57:02.917|10=024| 123
95:I:N 20150303-22:57:03.883 : 8=FIX.4.4|9=69|35=0|34=95|49=77MARKETS|50=PRICE|52=20150303-22:57:03.843|56=1001083|10=016| 123
96:O:N 20150303-22:57:32.918 : 8=FIX.4.4|9=69|35=0|49=1001083|56=77MARKETS|34=96|57=PRICE|52=20150303-22:57:32.918|10=029| 123
96:I:N 20150303-22:57:33.883 : 8=FIX.4.4|9=69|35=0|34=96|49=77MARKETS|50=PRICE|52=20150303-22:57:33.843|56=1001083|10=020| 123
97:O:N 20150303-22:58:02.918 : 8=FIX.4.4|9=69|35=0|49=1001083|56=77MARKETS|34=97|57=PRICE|52=20150303-22:58:02.918|10=028| 123
97:I:N 20150303-22:58:03.883 : 8=FIX.4.4|9=69|35=0|34=97|49=77MARKETS|50=PRICE|52=20150303-22:58:03.843|56=1001083|10=019| 123
98:O:N 20150303-22:58:32.918 : 8=FIX.4.4|9=69|35=0|49=1001083|56=77MARKETS|34=98|57=PRICE|52=20150303-22:58:32.918|10=032| 123
98:I:N 20150303-22:58:33.883 : 8=FIX.4.4|9=69|35=0|34=98|49=77MARKETS|50=PRICE|52=20150303-22:58:33.843|56=1001083|10=023| 123
99:O:N 20150303-22:59:02.919 : 8=FIX.4.4|9=69|35=0|49=1001083|56=77MARKETS|34=99|57=PRICE|52=20150303-22:59:02.919|10=032| 123
99:I:N 20150303-22:59:03.883 : 8=FIX.4.4|9=69|35=0|34=99|49=77MARKETS|50=PRICE|52=20150303-22:59:03.843|56=1001083|10=022| 123
100:O:N 20150303-22:59:32.919 : 8=FIX.4.4|9=70|35=0|49=1001083|56=77MARKETS|34=100|57=PRICE|52=20150303-22:59:32.919|10=058| 125
100:I:N 20150303-22:59:33.883 : 8=FIX.4.4|9=70|35=0|34=100|49=77MARKETS|50=PRICE|52=20150303-22:59:33.843|56=1001083|10=048| 125
101:O:N 20150303-23:00:02.919 : 8=FIX.4.4|9=70|35=0|49=1001083|56=77MARKETS|34=101|57=PRICE|52=20150303-23:00:02.919|10=043| 125
101:I:N 20150303-23:00:03.883 : 8=FIX.4.4|9=70|35=0|34=101|49=77MARKETS|50=PRICE|52=20150303-23:00:03.843|56=1001083|10=033| 125
102:O:N 20150303-23:00:32.920 : 8=FIX.4.4|9=70|35=0|49=1001083|56=77MARKETS|34=102|57=PRICE|52=20150303-23:00:32.920|10=039| 125
102:I:N 20150303-23:00:33.883 : 8=FIX.4.4|9=70|35=0|34=102|49=77MARKETS|50=PRICE|52=20150303-23:00:33.843|56=1001083|10=037| 125
103:O:N 20150303-23:01:02.920 : 8=FIX.4.4|9=70|35=0|49=1001083|56=77MARKETS|34=103|57=PRICE|52=20150303-23:01:02.920|10=038| 125
103:I:N 20150303-23:01:03.883 : 8=FIX.4.4|9=70|35=0|34=103|49=77MARKETS|50=PRICE|52=20150303-23:01:03.843|56=1001083|10=036| 125
104:O:N 20150303-23:01:32.920 : 8=FIX.4.4|9=70|35=0|49=1001083|56=77MARKETS|34=104|57=PRICE|52=20150303-23:01:32.920|10=042| 125
104:I:N 20150303-23:01:33.883 : 8=FIX.4.4|9=70|35=0|34=104|49=77MARKETS|50=PRICE|52=20150303-23:01:33.843|56=1001083|10=040| 125
105:O:N 20150303-23:02:02.921 : 8=FIX.4.4|9=70|35=0|49=1001083|56=77MARKETS|34=105|57=PRICE|52=20150303-23:02:02.921|10=042| 125
105:I:N 20150303-23:02:03.883 : 8=FIX.4.4|9=70|35=0|34=105|49=77MARKETS|50=PRICE|52=20150303-23:02:03.843|56=1001083|10=039| 125
106:O:N 20150303-23:02:32.921 : 8=FIX.4.4|9=70|35=0|49=1001083|56=77MARKETS|34=106|57=PRICE|52=20150303-23:02:32.921|10=046| 125
106:I:N 20150303-23:02:33.883 : 8=FIX.4.4|9=70|35=0|34=106|49=77MARKETS|50=PRICE|52=20150303-23:02:33.843|56=1001083|10=043| 125
107:O:N 20150303-23:03:02.921 : 8=FIX.4.4|9=70|35=0|49=1001083|56=77MARKETS|34=107|57=PRICE|52=20150303-23:03:02.921|10=045| 125
107:I:N 20150303-23:03:03.883 : 8=FIX.4.4|9=70|35=0|34=107|49=77MARKETS|50=PRICE|52=20150303-23:03:03.843|56=1001083|10=042| 125
108:O:N 20150303-23:03:32.922 : 8=FIX.4.4|9=70|35=0|49=1001083|56=77MARKETS|34=108|57=PRICE|52=20150303-23:03:32.922|10=050| 125
108:I:N 20150303-23:03:33.883 : 8=FIX.4.4|9=70|35=0|34=108|49=77MARKETS|50=PRICE|52=20150303-23:03:33.843|56=1001083|10=046| 125
109:O:N 20150303-23:04:02.922 : 8=FIX.4.4|9=70|35=0|49=1001083|56=77MARKETS|34=109|57=PRICE|52=20150303-23:04:02.922|10=049| 125
109:I:N 20150303-23:04:03.883 : 8=FIX.4.4|9=70|35=0|34=109|49=77MARKETS|50=PRICE|52=20150303-23:04:03.843|56=1001083|10=045| 125
110:O:N 20150303-23:04:32.923 : 8=FIX.4.4|9=70|35=0|49=1001083|56=77MARKETS|34=110|57=PRICE|52=20150303-23:04:32.923|10=045| 125
110:I:N 20150303-23:04:33.883 : 8=FIX.4.4|9=70|35=0|34=110|49=77MARKETS|50=PRICE|52=20150303-23:04:33.843|56=1001083|10=040| 125
111:O:N 20150303-23:05:02.923 : 8=FIX.4.4|9=70|35=0|49=1001083|56=77MARKETS|34=111|57=PRICE|52=20150303-23:05:02.923|10=044| 125
111:I:N 20150303-23:05:03.883 : 8=FIX.4.4|9=70|35=0|34=111|49=77MARKETS|50=PRICE|52=20150303-23:05:03.843|56=1001083|10=039| 125
112:O:N 20150303-23:05:32.923 : 8=FIX.4.4|9=70|35=0|49=1001083|56=77MARKETS|34=112|57=PRICE|52=20150303-23:05:32.923|10=048| 125
112:I:N 20150303-23:05:33.883 : 8=FIX.4.4|9=70|35=0|34=112|49=77MARKETS|50=PRICE|52=20150303-23:05:33.843|56=1001083|10=043| 125
113:O:N 20150303-23:06:02.923 : 8=FIX.4.4|9=70|35=0|49=1001083|56=77MARKETS|34=113|57=PRICE|52=20150303-23:06:02.923|10=047| 125
113:I:N 20150303-23:06:03.883 : 8=FIX.4.4|9=70|35=0|34=113|49=77MARKETS|50=PRICE|52=20150303-23:06:03.843|56=1001083|10=042| 125
114:O:N 20150303-23:06:32.924 : 8=FIX.4.4|9=70|35=0|49=1001083|56=77MARKETS|34=114|57=PRICE|52=20150303-23:06:32.924|10=052| 125
114:I:N 20150303-23:06:33.883 : 8=FIX.4.4|9=70|35=0|34=114|49=77MARKETS|50=PRICE|52=20150303-23:06:33.843|56=1001083|10=046| 125
115:O:N 20150303-23:07:02.924 : 8=FIX.4.4|9=70|35=0|49=1001083|56=77MARKETS|34=115|57=PRICE|52=20150303-23:07:02.924|10=051| 125
115:I:N 20150303-23:07:03.883 : 8=FIX.4.4|9=70|35=0|34=115|49=77MARKETS|50=PRICE|52=20150303-23:07:03.843|56=1001083|10=045| 125
116:O:N 20150303-23:07:32.925 : 8=FIX.4.4|9=70|35=0|49=1001083|56=77MARKETS|34=116|57=PRICE|52=20150303-23:07:32.924|10=055| 125
116:I:N 20150303-23:07:33.883 : 8=FIX.4.4|9=70|35=0|34=116|49=77MARKETS|50=PRICE|52=20150303-23:07:33.843|56=1001083|10=049| 125
117:O:N 20150303-23:08:02.925 : 8=FIX.4.4|9=70|35=0|49=1001083|56=77MARKETS|34=117|57=PRICE|52=20150303-23:08:02.925|10=055| 125
117:I:N 20150303-23:08:03.884 : 8=FIX.4.4|9=70|35=0|34=117|49=77MARKETS|50=PRICE|52=20150303-23:08:03.843|56=1001083|10=048| 125
118:O:N 20150303-23:08:32.925 : 8=FIX.4.4|9=70|35=0|49=1001083|56=77MARKETS|34=118|57=PRICE|52=20150303-23:08:32.925|10=059| 125
118:I:N 20150303-23:08:33.883 : 8=FIX.4.4|9=70|35=0|34=118|49=77MARKETS|50=PRICE|52=20150303-23:08:33.843|56=1001083|10=052| 125
119:O:N 20150303-23:09:02.926 : 8=FIX.4.4|9=70|35=0|49=1001083|56=77MARKETS|34=119|57=PRICE|52=20150303-23:09:02.925|10=058| 125
119:I:N 20150303-23:09:03.883 : 8=FIX.4.4|9=70|35=0|34=119|49=77MARKETS|50=PRICE|52=20150303-23:09:03.843|56=1001083|10=051| 125
120:O:N 20150303-23:09:32.926 : 8=FIX.4.4|9=70|35=0|49=1001083|56=77MARKETS|34=120|57=PRICE|52=20150303-23:09:32.926|10=054| 125
120:I:N 20150303-23:09:33.883 : 8=FIX.4.4|9=70|35=0|34=120|49=77MARKETS|50=PRICE|52=20150303-23:09:33.843|56=1001083|10=046| 125
121:O:N 20150303-23:10:02.926 : 8=FIX.4.4|9=70|35=0|49=1001083|56=77MARKETS|34=121|57=PRICE|52=20150303-23:10:02.926|10=044| 125
121:I:N 20150303-23:10:03.883 : 8=FIX.4.4|9=70|35=0|34=121|49=77MARKETS|50=PRICE|52=20150303-23:10:03.843|56=1001083|10=036| 125
122:O:N 20150303-23:10:32.927 : 8=FIX.4.4|9=70|35=0|49=1001083|56=77MARKETS|34=122|57=PRICE|52=20150303-23:10:32.927|10=049| 125
122:I:N 20150303-23:10:33.883 : 8=FIX.4.4|9=70|35=0|34=122|49=77MARKETS|50=PRICE|52=20150303-23:10:33.843|56=1001083|10=040| 125
123:O:N 20150303-23:11:02.927 : 8=FIX.4.4|9=70|35=0|49=1001083|56=77MARKETS|34=123|57=PRICE|52=20150303-23:11:02.927|10=048| 125
123:I:N 20150303-23:11:03.883 : 8=FIX.4.4|9=70|35=0|34=123|49=77MARKETS|50=PRICE|52=20150303-23:11:03.843|56=1001083|10=039| 125
124:O:N 20150303-23:11:32.927 : 8=FIX.4.4|9=70|35=0|49=1001083|56=77MARKETS|34=124|57=PRICE|52=20150303-23:11:32.927|10=052| 125
124:I:N 20150303-23:11:33.883 : 8=FIX.4.4|9=70|35=0|34=124|49=77MARKETS|50=PRICE|52=20150303-23:11:33.843|56=1001083|10=043| 125
125:O:N 20150303-23:12:02.928 : 8=FIX.4.4|9=70|35=0|49=1001083|56=77MARKETS|34=125|57=PRICE|52=20150303-23:12:02.928|10=052| 125
125:I:N 20150303-23:12:03.883 : 8=FIX.4.4|9=70|35=0|34=125|49=77MARKETS|50=PRICE|52=20150303-23:12:03.843|56=1001083|10=042| 125
126:O:N 20150303-23:12:32.928 : 8=FIX.4.4|9=70|35=0|49=1001083|56=77MARKETS|34=126|57=PRICE|52=20150303-23:12:32.928|10=056| 125
126:I:N 20150303-23:12:33.883 : 8=FIX.4.4|9=70|35=0|34=126|49=77MARKETS|50=PRICE|52=20150303-23:12:33.843|56=1001083|10=046| 125
127:O:N 20150303-23:13:02.928 : 8=FIX.4.4|9=70|35=0|49=1001083|56=77MARKETS|34=127|57=PRICE|52=20150303-23:13:02.928|10=055| 125
127:I:N 20150303-23:13:03.883 : 8=FIX.4.4|9=70|35=0|34=127|49=77MARKETS|50=PRICE|52=20150303-23:13:03.843|56=1001083|10=045| 125
128:O:N 20150303-23:13:32.929 : 8=FIX.4.4|9=70|35=0|49=1001083|56=77MARKETS|34=128|57=PRICE|52=20150303-23:13:32.929|10=060| 125
128:I:N 20150303-23:13:33.883 : 8=FIX.4.4|9=70|35=0|34=128|49=77MARKETS|50=PRICE|52=20150303-23:13:33.843|56=1001083|10=049| 125
129:O:N 20150303-23:14:02.930 : 8=FIX.4.4|9=70|35=0|49=1001083|56=77MARKETS|34=129|57=PRICE|52=20150303-23:14:02.930|10=051| 125
129:I:N 20150303-23:14:03.883 : 8=FIX.4.4|9=70|35=0|34=129|49=77MARKETS|50=PRICE|52=20150303-23:14:03.843|56=1001083|10=048| 125
130:O:N 20150303-23:14:25.402 : 8=FIX.4.4|9=164|35=V|49=1001083|56=77MARKETS|34=130|57=PRICE|52=20150303-23:14:25.401|262=78a6a437-18a0-4edc-95f0-db3d11e547c6|263=1|264=0|265=1|267=2|269=0|269=1|146=1|55=EUR/USD|10=214| 220
130:I:N 20150303-23:14:25.484 : 8=FIX.4.4|9=2177|35=X|34=130|49=77MARKETS|50=PRICE|52=20150303-23:14:25.437|56=1001083|268=34|279=0|269=0|278=8387997901|55=EUR/USD|270=1.11808|271=1000000|279=0|269=0|278=8387999557|55=EUR/USD|270=1.11805|271=500000|279=0|269=0|278=8387999558|55=EUR/USD|270=1.11802|271=1500000|279=0|269=0|278=8388014246|55=EUR/USD|270=1.11801|271=1000000|279=0|269=0|278=8388009280|55=EUR/USD|270=1.118|271=2500000|279=0|269=0|278=8388014248|55=EUR/USD|270=1.11799|271=2500000|279=0|269=0|278=8388011472|55=EUR/USD|270=1.11798|271=5750000|279=0|269=0|278=8388011473|55=EUR/USD|270=1.11797|271=1000000|279=0|269=0|278=8388011474|55=EUR/USD|270=1.11796|271=3000000|279=0|269=0|278=8387999564|55=EUR/USD|270=1.11795|271=9000000|279=0|269=0|278=8387999565|55=EUR/USD|270=1.11794|271=1000000|279=0|269=0|278=8387999566|55=EUR/USD|270=1.11792|271=5000000|279=0|269=0|278=8387999567|55=EUR/USD|270=1.11789|271=4500000|279=0|269=0|278=8387999568|55=EUR/USD|270=1.11788|271=3000000|279=0|269=0|278=8387987983|55=EUR/USD|270=1.11787|271=5000000|279=0|269=0|278=8387997915|55=EUR/USD|270=1.11785|271=1000000|279=0|269=1|278=8387999571|55=EUR/USD|270=1.11812|271=500000|279=0|269=1|278=8387999572|55=EUR/USD|270=1.11814|271=1000000|279=0|269=1|278=8388014261|55=EUR/USD|270=1.11815|271=500000|279=0|269=1|278=8387999573|55=EUR/USD|270=1.11816|271=1000000|279=0|269=1|278=8387999574|55=EUR/USD|270=1.11817|271=1500000|279=0|269=1|278=8388014264|55=EUR/USD|270=1.11818|271=3500000|279=0|269=1|278=8388011487|55=EUR/USD|270=1.11819|271=1000000|279=0|269=1|278=8388014266|55=EUR/USD|270=1.1182|271=500000|279=0|269=1|278=8388014267|55=EUR/USD|270=1.11821|271=5000000|279=0|269=1|278=8388011490|55=EUR/USD|270=1.11822|271=5000000|279=0|269=1|278=8387999580|55=EUR/USD|270=1.11823|271=1000000|279=0|269=1|278=8387999581|55=EUR/USD|270=1.11824|271=3000000|279=0|269=1|278=8387999582|55=EUR/USD|270=1.11826|271=250000|279=0|269=1|278=8387999583|55=EUR/USD|270=1.11827|271=9000000|279=0|269=1|278=8387999584|55=EUR/USD|270=1.11828|271=1500000|279=0|269=1|278=8387999585|55=EUR/USD|270=1.11829|271=6000000|279=0|269=1|278=8387988000|55=EUR/USD|270=1.11835|271=5000000|279=0|269=1|278=8387997930|55=EUR/USD|270=1.11842|271=1000000|10=161| 2234
131:I:N 20150303-23:14:25.985 : 8=FIX.4.4|9=703|35=X|34=131|49=77MARKETS|50=PRICE|52=20150303-23:14:25.943|56=1001083|268=14|279=0|269=0|278=8388017884|55=EUR/USD|270=1.118|271=3500000|279=0|269=0|278=8388017885|55=EUR/USD|270=1.11799|271=5500000|279=0|269=0|278=8388017886|55=EUR/USD|270=1.11798|271=4750000|279=0|269=1|278=8388017898|55=EUR/USD|270=1.11816|271=2000000|279=0|269=1|278=8388017900|55=EUR/USD|270=1.11818|271=6500000|279=0|269=1|278=8388017902|55=EUR/USD|270=1.11821|271=2000000|279=2|278=8388009280|55=EUR/USD|279=2|278=8388014248|55=EUR/USD|279=2|278=8388011472|55=EUR/USD|279=2|278=8388011474|55=EUR/USD|279=2|278=8387999573|55=EUR/USD|279=2|278=8388014264|55=EUR/USD|279=2|278=8388011487|55=EUR/USD|279=2|278=8388014267|55=EUR/USD|10=241| 759
132:I:N 20150303-23:14:26.696 : 8=FIX.4.4|9=452|35=X|34=132|49=77MARKETS|50=PRICE|52=20150303-23:14:26.655|56=1001083|268=8|279=0|269=1|278=8388021444|55=EUR/USD|270=1.11817|271=4500000|279=0|269=1|278=8388021445|55=EUR/USD|270=1.11818|271=3500000|279=0|269=1|278=8388021448|55=EUR/USD|270=1.11822|271=4000000|279=0|269=1|278=8388021449|55=EUR/USD|270=1.11823|271=2000000|279=2|278=8387999574|55=EUR/USD|279=2|278=8388017900|55=EUR/USD|279=2|278=8388011490|55=EUR/USD|279=2|278=8387999580|55=EUR/USD|10=250| 508
133:I:N 20150303-23:14:33.839 : 8=FIX.4.4|9=389|35=X|34=133|49=77MARKETS|50=PRICE|52=20150303-23:14:33.798|56=1001083|268=7|279=0|269=0|278=8388044376|55=EUR/USD|270=1.11802|271=2000000|279=0|269=0|278=8388044377|55=EUR/USD|270=1.11801|271=500000|279=0|269=1|278=8388044391|55=EUR/USD|270=1.11816|271=2500000|279=2|278=8387999558|55=EUR/USD|279=2|278=8388014246|55=EUR/USD|279=2|278=8388014261|55=EUR/USD|279=2|278=8388017898|55=EUR/USD|10=184| 445
134:I:N 20150303-23:14:33.995 : 8=FIX.4.4|9=639|35=X|34=134|49=77MARKETS|50=PRICE|52=20150303-23:14:33.954|56=1001083|268=12|279=0|269=0|278=8388044711|55=EUR/USD|270=1.11801|271=4500000|279=0|269=0|278=8388044712|55=EUR/USD|270=1.118|271=2500000|279=0|269=0|278=8388044713|55=EUR/USD|270=1.11799|271=2500000|279=0|269=1|278=8388044725|55=EUR/USD|270=1.11816|271=1500000|279=0|269=1|278=8388044726|55=EUR/USD|270=1.11817|271=2500000|279=0|269=1|278=8388044727|55=EUR/USD|270=1.11818|271=6500000|279=2|278=8388044377|55=EUR/USD|279=2|278=8388017884|55=EUR/USD|279=2|278=8388017885|55=EUR/USD|279=2|278=8388044391|55=EUR/USD|279=2|278=8388021444|55=EUR/USD|279=2|278=8388021445|55=EUR/USD|10=117| 695
135:I:N 20150303-23:14:36.752 : 8=FIX.4.4|9=669|35=X|34=135|49=77MARKETS|50=PRICE|52=20150303-23:14:36.711|56=1001083|268=12|279=0|269=0|278=8388052615|55=EUR/USD|270=1.11803|271=1000000|279=0|269=0|278=8388052616|55=EUR/USD|270=1.11802|271=1000000|279=0|269=0|278=8388052617|55=EUR/USD|270=1.11801|271=5500000|279=0|269=0|278=8388052618|55=EUR/USD|270=1.118|271=1500000|279=0|269=1|278=8388052630|55=EUR/USD|270=1.11815|271=1000000|279=0|269=1|278=8388052633|55=EUR/USD|270=1.11818|271=3500000|279=0|269=1|278=8388052634|55=EUR/USD|270=1.11819|271=3000000|279=2|278=8388044376|55=EUR/USD|279=2|278=8388044711|55=EUR/USD|279=2|278=8388044712|55=EUR/USD|279=2|278=8387999572|55=EUR/USD|279=2|278=8388044727|55=EUR/USD|10=191| 725
136:I:N 20150303-23:14:37.196 : 8=FIX.4.4|9=452|35=X|34=136|49=77MARKETS|50=PRICE|52=20150303-23:14:37.154|56=1001083|268=8|279=0|269=0|278=8388054363|55=EUR/USD|270=1.11799|271=1500000|279=0|269=0|278=8388054364|55=EUR/USD|270=1.11798|271=5750000|279=0|269=1|278=8388054381|55=EUR/USD|270=1.11822|271=5000000|279=0|269=1|278=8388054382|55=EUR/USD|270=1.11823|271=1000000|279=2|278=8388044713|55=EUR/USD|279=2|278=8388017886|55=EUR/USD|279=2|278=8388021448|55=EUR/USD|279=2|278=8388021449|55=EUR/USD|10=005| 508
137:I:N 20150303-23:14:37.411 : 8=FIX.4.4|9=264|35=X|34=137|49=77MARKETS|50=PRICE|52=20150303-23:14:37.370|56=1001083|268=4|279=0|269=1|278=8388055914|55=EUR/USD|270=1.11826|271=3250000|279=0|269=1|278=8388055915|55=EUR/USD|270=1.11827|271=6000000|279=2|278=8387999582|55=EUR/USD|279=2|278=8387999583|55=EUR/USD|10=125| 320
138:I:N 20150303-23:14:37.983 : 8=FIX.4.4|9=358|35=X|34=138|49=77MARKETS|50=PRICE|52=20150303-23:14:37.942|56=1001083|268=6|279=0|269=0|278=8388058016|55=EUR/USD|270=1.11786|271=3000000|279=0|269=1|278=8388058030|55=EUR/USD|270=1.11827|271=9000000|279=0|269=1|278=8388058032|55=EUR/USD|270=1.11829|271=3000000|279=2|278=8387999568|55=EUR/USD|279=2|278=8388055915|55=EUR/USD|279=2|278=8387999585|55=EUR/USD|10=087| 414
139:I:N 20150303-23:14:38.852 : 8=FIX.4.4|9=734|35=X|34=139|49=77MARKETS|50=PRICE|52=20150303-23:14:38.810|56=1001083|268=14|279=0|269=0|278=8388060776|55=EUR/USD|270=1.11789|271=3000000|279=0|269=0|278=8388060777|55=EUR/USD|270=1.11788|271=4500000|279=0|269=1|278=8388060786|55=EUR/USD|270=1.1182|271=1000000|279=0|269=1|278=8388060787|55=EUR/USD|270=1.11821|271=1500000|279=0|269=1|278=8388060791|55=EUR/USD|270=1.11825|271=1500000|279=0|269=1|278=8388060792|55=EUR/USD|270=1.11826|271=6250000|279=0|269=1|278=8388060793|55=EUR/USD|270=1.11827|271=6000000|279=2|278=8387999567|55=EUR/USD|279=2|278=8388058016|55=EUR/USD|279=2|278=8388014266|55=EUR/USD|279=2|278=8388017902|55=EUR/USD|279=2|278=8388055914|55=EUR/USD|279=2|278=8388058030|55=EUR/USD|279=2|278=8387999584|55=EUR/USD|10=188| 790
140:I:N 20150303-23:14:38.997 : 8=FIX.4.4|9=262|35=X|34=140|49=77MARKETS|50=PRICE|52=20150303-23:14:38.956|56=1001083|268=4|279=0|269=1|278=8388061142|55=EUR/USD|270=1.1182|271=2000000|279=0|269=1|278=8388061143|55=EUR/USD|270=1.11821|271=500000|279=2|278=8388060786|55=EUR/USD|279=2|278=8388060787|55=EUR/USD|10=219| 318
141:I:N 20150303-23:14:40.205 : 8=FIX.4.4|9=264|35=X|34=141|49=77MARKETS|50=PRICE|52=20150303-23:14:40.164|56=1001083|268=4|279=0|269=0|278=8388064394|55=EUR/USD|270=1.11802|271=3000000|279=0|269=0|278=8388064395|55=EUR/USD|270=1.11801|271=5000000|279=2|278=8388052616|55=EUR/USD|279=2|278=8388052617|55=EUR/USD|10=053| 320
142:I:N 20150303-23:14:40.865 : 8=FIX.4.4|9=263|35=X|34=142|49=77MARKETS|50=PRICE|52=20150303-23:14:40.824|56=1001083|268=4|279=0|269=1|278=8388065789|55=EUR/USD|270=1.1182|271=1500000|279=0|269=1|278=8388065790|55=EUR/USD|270=1.11821|271=1000000|279=2|278=8388061142|55=EUR/USD|279=2|278=8388061143|55=EUR/USD|10=008| 319
143:I:N 20150303-23:14:40.998 : 8=FIX.4.4|9=449|35=X|34=143|49=77MARKETS|50=PRICE|52=20150303-23:14:40.957|56=1001083|268=8|279=0|269=0|278=8388066465|55=EUR/USD|270=1.11801|271=2000000|279=0|269=0|278=8388066466|55=EUR/USD|270=1.118|271=4500000|279=0|269=1|278=8388066480|55=EUR/USD|270=1.11817|271=5500000|279=0|269=1|278=8388066481|55=EUR/USD|270=1.11818|271=500000|279=2|278=8388064395|55=EUR/USD|279=2|278=8388052618|55=EUR/USD|279=2|278=8388044726|55=EUR/USD|279=2|278=8388052633|55=EUR/USD|10=120| 505
144:I:N 20150303-23:14:42.371 : 8=FIX.4.4|9=516|35=X|34=144|49=77MARKETS|50=PRICE|52=20150303-23:14:42.330|56=1001083|268=10|279=0|269=0|278=8388071716|55=EUR/USD|270=1.11806|271=500000|279=0|269=0|278=8388071724|55=EUR/USD|270=1.11795|271=10000000|279=0|269=1|278=8388071730|55=EUR/USD|270=1.11813|271=500000|279=0|269=1|278=8388071739|55=EUR/USD|270=1.11824|271=4000000|279=2|278=8387999557|55=EUR/USD|279=2|278=8387999564|55=EUR/USD|279=2|278=8387999565|55=EUR/USD|279=2|278=8387999571|55=EUR/USD|279=2|278=8388054382|55=EUR/USD|279=2|278=8387999581|55=EUR/USD|10=158| 572
145:I:N 20150303-23:14:46.268 : 8=FIX.4.4|9=262|35=X|34=145|49=77MARKETS|50=PRICE|52=20150303-23:14:46.227|56=1001083|268=4|279=0|269=0|278=8388088960|55=EUR/USD|270=1.118|271=5000000|279=0|269=0|278=8388088961|55=EUR/USD|270=1.11799|271=1000000|279=2|278=8388066466|55=EUR/USD|279=2|278=8388054363|55=EUR/USD|10=251| 318
146:I:N 20150303-23:14:46.996 : 8=FIX.4.4|9=920|35=X|34=146|49=77MARKETS|50=PRICE|52=20150303-23:14:46.954|56=1001083|268=18|279=0|269=0|278=8388091500|55=EUR/USD|270=1.118|271=3000000|279=0|269=0|278=8388091501|55=EUR/USD|270=1.11799|271=3000000|279=0|269=1|278=8388091512|55=EUR/USD|270=1.11816|271=1000000|279=0|269=1|278=8388091513|55=EUR/USD|270=1.11818|271=2000000|279=0|269=1|278=8388091514|55=EUR/USD|270=1.11819|271=3500000|279=0|269=1|278=8388091515|55=EUR/USD|270=1.1182|271=2500000|279=0|269=1|278=8388091516|55=EUR/USD|270=1.11821|271=4000000|279=0|269=1|278=8388091517|55=EUR/USD|270=1.11822|271=2000000|279=0|269=1|278=8388091518|55=EUR/USD|270=1.11823|271=3000000|279=2|278=8388088960|55=EUR/USD|279=2|278=8388088961|55=EUR/USD|279=2|278=8388044725|55=EUR/USD|279=2|278=8388066480|55=EUR/USD|279=2|278=8388066481|55=EUR/USD|279=2|278=8388052634|55=EUR/USD|279=2|278=8388065789|55=EUR/USD|279=2|278=8388065790|55=EUR/USD|279=2|278=8388054381|55=EUR/USD|10=191| 976
147:I:N 20150303-23:14:47.271 : 8=FIX.4.4|9=262|35=X|34=147|49=77MARKETS|50=PRICE|52=20150303-23:14:47.230|56=1001083|268=4|279=0|269=0|278=8388093051|55=EUR/USD|270=1.118|271=2500000|279=0|269=0|278=8388093052|55=EUR/USD|270=1.11799|271=3500000|279=2|278=8388091500|55=EUR/USD|279=2|278=8388091501|55=EUR/USD|10=213| 318
148:I:N 20150303-23:14:47.698 : 8=FIX.4.4|9=450|35=X|34=148|49=77MARKETS|50=PRICE|52=20150303-23:14:47.657|56=1001083|268=8|279=0|269=0|278=8388093873|55=EUR/USD|270=1.118|271=4500000|279=0|269=0|278=8388093874|55=EUR/USD|270=1.11799|271=1500000|279=0|269=1|278=8388093889|55=EUR/USD|270=1.11821|271=1000000|279=0|269=1|278=8388093890|55=EUR/USD|270=1.11822|271=5000000|279=2|278=8388093051|55=EUR/USD|279=2|278=8388093052|55=EUR/USD|279=2|278=8388091516|55=EUR/USD|279=2|278=8388091517|55=EUR/USD|10=184| 506
149:I:N 20150303-23:14:47.998 : 8=FIX.4.4|9=326|35=X|34=149|49=77MARKETS|50=PRICE|52=20150303-23:14:47.957|56=1001083|268=5|279=0|269=0|278=8388094698|55=EUR/USD|270=1.11795|271=7000000|279=0|269=0|278=8388094699|55=EUR/USD|270=1.11794|271=3000000|279=0|269=0|278=8388094703|55=EUR/USD|270=1.11786|271=5000000|279=2|278=8388071724|55=EUR/USD|279=2|278=8387987983|55=EUR/USD|10=186| 382
150:I:N 20150303-23:14:48.293 : 8=FIX.4.4|9=264|35=X|34=150|49=77MARKETS|50=PRICE|52=20150303-23:14:48.252|56=1001083|268=4|279=0|269=0|278=8388096108|55=EUR/USD|270=1.11802|271=2500000|279=0|269=0|278=8388096109|55=EUR/USD|270=1.11801|271=2500000|279=2|278=8388064394|55=EUR/USD|279=2|278=8388066465|55=EUR/USD|10=073| 320
151:I:N 20150303-23:14:48.941 : 8=FIX.4.4|9=545|35=X|34=151|49=77MARKETS|50=PRICE|52=20150303-23:14:48.899|56=1001083|268=10|279=0|269=0|278=8388098736|55=EUR/USD|270=1.11801|271=1500000|279=0|269=0|278=8388098737|55=EUR/USD|270=1.118|271=2500000|279=0|269=0|278=8388098738|55=EUR/USD|270=1.11799|271=7500000|279=0|269=0|278=8388098739|55=EUR/USD|270=1.11798|271=2750000|279=0|269=1|278=8388098750|55=EUR/USD|270=1.11817|271=1000000|279=2|278=8388096109|55=EUR/USD|279=2|278=8388093873|55=EUR/USD|279=2|278=8388093874|55=EUR/USD|279=2|278=8388054364|55=EUR/USD|279=2|278=8388091512|55=EUR/USD|10=252| 601
152:I:N 20150303-23:14:49.303 : 8=FIX.4.4|9=452|35=X|34=152|49=77MARKETS|50=PRICE|52=20150303-23:14:49.262|56=1001083|268=8|279=0|269=0|278=8388100898|55=EUR/USD|270=1.11803|271=1500000|279=0|269=0|278=8388100900|55=EUR/USD|270=1.11801|271=1000000|279=0|269=1|278=8388100914|55=EUR/USD|270=1.11817|271=1500000|279=0|269=1|278=8388100916|55=EUR/USD|270=1.11819|271=3000000|279=2|278=8388052615|55=EUR/USD|279=2|278=8388098736|55=EUR/USD|279=2|278=8388098750|55=EUR/USD|279=2|278=8388091514|55=EUR/USD|10=224| 508
153:I:N 20150303-23:14:49.427 : 8=FIX.4.4|9=826|35=X|34=153|49=77MARKETS|50=PRICE|52=20150303-23:14:49.386|56=1001083|268=16|279=0|269=0|278=8388102124|55=EUR/USD|270=1.11802|271=3500000|279=0|269=0|278=8388102125|55=EUR/USD|270=1.11801|271=4000000|279=0|269=0|278=8388102126|55=EUR/USD|270=1.118|271=1500000|279=0|269=0|278=8388102127|55=EUR/USD|270=1.11799|271=4500000|279=0|269=1|278=8388102140|55=EUR/USD|270=1.11818|271=3000000|279=0|269=1|278=8388102141|55=EUR/USD|270=1.11819|271=6000000|279=0|269=1|278=8388102142|55=EUR/USD|270=1.1182|271=1500000|279=0|269=1|278=8388102144|55=EUR/USD|270=1.11822|271=2000000|279=2|278=8388096108|55=EUR/USD|279=2|278=8388100900|55=EUR/USD|279=2|278=8388098737|55=EUR/USD|279=2|278=8388098738|55=EUR/USD|279=2|278=8388091513|55=EUR/USD|279=2|278=8388100916|55=EUR/USD|279=2|278=8388091515|55=EUR/USD|279=2|278=8388093890|55=EUR/USD|10=150| 882
154:I:N 20150303-23:14:51.700 : 8=FIX.4.4|9=358|35=X|34=154|49=77MARKETS|50=PRICE|52=20150303-23:14:51.659|56=1001083|268=6|279=0|269=1|278=8388113625|55=EUR/USD|270=1.11817|271=2000000|279=0|269=1|278=8388113626|55=EUR/USD|270=1.11818|271=5500000|279=0|269=1|278=8388113627|55=EUR/USD|270=1.11819|271=3000000|279=2|278=8388100914|55=EUR/USD|279=2|278=8388102140|55=EUR/USD|279=2|278=8388102141|55=EUR/USD|10=002| 414
155:I:N 20150303-23:14:51.995 : 8=FIX.4.4|9=390|35=X|34=155|49=77MARKETS|50=PRICE|52=20150303-23:14:51.954|56=1001083|268=7|279=0|269=1|278=8388115911|55=EUR/USD|270=1.11817|271=3000000|279=0|269=1|278=8388115912|55=EUR/USD|270=1.11818|271=4500000|279=0|269=1|278=8388115916|55=EUR/USD|270=1.11822|271=5000000|279=2|278=8388113625|55=EUR/USD|279=2|278=8388113626|55=EUR/USD|279=2|278=8388102144|55=EUR/USD|279=2|278=8388091518|55=EUR/USD|10=193| 446
156:I:N 20150303-23:14:52.314 : 8=FIX.4.4|9=419|35=X|34=156|49=77MARKETS|50=PRICE|52=20150303-23:14:52.274|56=1001083|268=7|279=0|269=0|278=8388117547|55=EUR/USD|270=1.11803|271=1000000|279=0|269=0|278=8388117548|55=EUR/USD|270=1.11802|271=4000000|279=0|269=1|278=8388117563|55=EUR/USD|270=1.11816|271=500000|279=0|269=1|278=8388117564|55=EUR/USD|270=1.11817|271=2500000|279=2|278=8388100898|55=EUR/USD|279=2|278=8388102124|55=EUR/USD|279=2|278=8388115911|55=EUR/USD|10=006| 475
157:I:N 20150303-23:14:52.996 : 8=FIX.4.4|9=452|35=X|34=157|49=77MARKETS|50=PRICE|52=20150303-23:14:52.955|56=1001083|268=8|279=0|269=0|278=8388120678|55=EUR/USD|270=1.11802|271=3000000|279=0|269=0|278=8388120679|55=EUR/USD|270=1.11801|271=5000000|279=0|269=1|278=8388120694|55=EUR/USD|270=1.11817|271=3500000|279=0|269=1|278=8388120695|55=EUR/USD|270=1.11818|271=3500000|279=2|278=8388117548|55=EUR/USD|279=2|278=8388102125|55=EUR/USD|279=2|278=8388117564|55=EUR/USD|279=2|278=8388115912|55=EUR/USD|10=243| 508
131:O:N 20150303-23:14:55.402 : 8=FIX.4.4|9=70|35=0|49=1001083|56=77MARKETS|34=131|57=PRICE|52=20150303-23:14:55.402|10=046| 125
158:I:N 20150303-23:14:55.920 : 8=FIX.4.4|9=449|35=X|34=158|49=77MARKETS|50=PRICE|52=20150303-23:14:55.879|56=1001083|268=8|279=0|269=0|278=8388133151|55=EUR/USD|270=1.11801|271=2000000|279=0|269=0|278=8388133152|55=EUR/USD|270=1.118|271=4500000|279=0|269=1|278=8388133166|55=EUR/USD|270=1.11817|271=6500000|279=0|269=1|278=8388133167|55=EUR/USD|270=1.11818|271=500000|279=2|278=8388120679|55=EUR/USD|279=2|278=8388102126|55=EUR/USD|279=2|278=8388120694|55=EUR/USD|279=2|278=8388120695|55=EUR/USD|10=093| 505
159:I:N 20150303-23:14:56.996 : 8=FIX.4.4|9=450|35=X|34=159|49=77MARKETS|50=PRICE|52=20150303-23:14:56.955|56=1001083|268=8|279=0|269=0|278=8388137995|55=EUR/USD|270=1.11801|271=5000000|279=0|269=0|278=8388137996|55=EUR/USD|270=1.118|271=1500000|279=0|269=1|278=8388138010|55=EUR/USD|270=1.11817|271=3500000|279=0|269=1|278=8388138011|55=EUR/USD|270=1.11818|271=3500000|279=2|278=8388133151|55=EUR/USD|279=2|278=8388133152|55=EUR/USD|279=2|278=8388133166|55=EUR/USD|279=2|278=8388133167|55=EUR/USD|10=144| 506
160:I:N 20150303-23:14:57.798 : 8=FIX.4.4|9=170|35=X|34=160|49=77MARKETS|50=PRICE|52=20150303-23:14:57.757|56=1001083|268=2|279=0|269=0|278=8388140527|55=EUR/USD|270=1.11787|271=5000000|279=2|278=8388094703|55=EUR/USD|10=121| 226
161:I:N 20150303-23:14:57.933 : 8=FIX.4.4|9=391|35=X|34=161|49=77MARKETS|50=PRICE|52=20150303-23:14:57.892|56=1001083|268=7|279=0|269=0|278=8388141097|55=EUR/USD|270=1.11799|271=5500000|279=0|269=0|278=8388141098|55=EUR/USD|270=1.11798|271=1750000|279=0|269=0|278=8388141100|55=EUR/USD|270=1.11795|271=10000000|279=2|278=8388102127|55=EUR/USD|279=2|278=8388098739|55=EUR/USD|279=2|278=8388094698|55=EUR/USD|279=2|278=8388094699|55=EUR/USD|10=060| 447
162:I:N 20150303-23:14:58.248 : 8=FIX.4.4|9=792|35=X|34=162|49=77MARKETS|50=PRICE|52=20150303-23:14:58.207|56=1001083|268=15|279=0|269=0|278=8388142447|55=EUR/USD|270=1.11802|271=4000000|279=0|269=0|278=8388142448|55=EUR/USD|270=1.11801|271=1000000|279=0|269=0|278=8388142449|55=EUR/USD|270=1.118|271=4500000|279=0|269=1|278=8388142460|55=EUR/USD|270=1.11814|271=500000|279=0|269=1|278=8388142461|55=EUR/USD|270=1.11815|271=500000|279=0|269=1|278=8388142462|55=EUR/USD|270=1.11816|271=1500000|279=0|269=1|278=8388142463|55=EUR/USD|270=1.11817|271=5500000|279=0|269=1|278=8388142464|55=EUR/USD|270=1.11818|271=500000|279=2|278=8388120678|55=EUR/USD|279=2|278=8388137995|55=EUR/USD|279=2|278=8388137996|55=EUR/USD|279=2|278=8388052630|55=EUR/USD|279=2|278=8388117563|55=EUR/USD|279=2|278=8388138010|55=EUR/USD|279=2|278=8388138011|55=EUR/USD|10=192| 848
163:I:N 20150303-23:14:59.680 : 8=FIX.4.4|9=262|35=X|34=163|49=77MARKETS|50=PRICE|52=20150303-23:14:59.639|56=1001083|268=4|279=0|269=1|278=8388148818|55=EUR/USD|270=1.11818|271=1500000|279=0|269=1|278=8388148820|55=EUR/USD|270=1.1182|271=500000|279=2|278=8388142464|55=EUR/USD|279=2|278=8388102142|55=EUR/USD|10=235| 318
164:I:N 20150303-23:14:59.995 : 8=FIX.4.4|9=202|35=X|34=164|49=77MARKETS|50=PRICE|52=20150303-23:14:59.954|56=1001083|268=3|279=0|269=1|278=8388150630|55=EUR/USD|270=1.11818|271=2000000|279=2|278=8388148818|55=EUR/USD|279=2|278=8388148820|55=EUR/USD|10=041| 258
165:I:N 20150303-23:15:00.863 : 8=FIX.4.4|9=420|35=X|34=165|49=77MARKETS|50=PRICE|52=20150303-23:15:00.821|56=1001083|268=7|279=0|269=0|278=8388155455|55=EUR/USD|270=1.11789|271=6000000|279=0|269=0|278=8388155456|55=EUR/USD|270=1.11788|271=1500000|279=0|269=1|278=8388155470|55=EUR/USD|270=1.11826|271=3250000|279=0|269=1|278=8388155472|55=EUR/USD|270=1.11828|271=3000000|279=2|278=8388060776|55=EUR/USD|279=2|278=8388060777|55=EUR/USD|279=2|278=8388060792|55=EUR/USD|10=097| 476
166:I:N 20150303-23:15:00.970 : 8=FIX.4.4|9=295|35=X|34=166|49=77MARKETS|50=PRICE|52=20150303-23:15:00.929|56=1001083|268=5|279=0|269=0|278=8388155949|55=EUR/USD|270=1.1179|271=1500000|279=0|269=1|278=8388155964|55=EUR/USD|270=1.11827|271=7500000|279=2|278=8388155456|55=EUR/USD|279=2|278=8388060791|55=EUR/USD|279=2|278=8388060793|55=EUR/USD|10=246| 351
167:I:N 20150303-23:15:01.477 : 8=FIX.4.4|9=545|35=X|34=167|49=77MARKETS|50=PRICE|52=20150303-23:15:01.436|56=1001083|268=10|279=0|269=0|278=8388159515|55=EUR/USD|270=1.11809|271=1000000|279=0|269=0|278=8388159526|55=EUR/USD|270=1.1179|271=4500000|279=0|269=0|278=8388159527|55=EUR/USD|270=1.11789|271=3000000|279=0|269=0|278=8388159529|55=EUR/USD|270=1.11786|271=1000000|279=0|269=1|278=8388159543|55=EUR/USD|270=1.1183|271=3000000|279=2|278=8387997901|55=EUR/USD|279=2|278=8388155949|55=EUR/USD|279=2|278=8388155455|55=EUR/USD|279=2|278=8387997915|55=EUR/USD|279=2|278=8388058032|55=EUR/USD|10=217| 601
168:I:N 20150303-23:15:01.639 : 8=FIX.4.4|9=1699|35=X|34=168|49=77MARKETS|50=PRICE|52=20150303-23:15:01.597|56=1001083|268=34|279=0|269=0|278=8388160458|55=EUR/USD|270=1.11804|271=500000|279=0|269=0|278=8388160460|55=EUR/USD|270=1.11802|271=3500000|279=0|269=0|278=8388160461|55=EUR/USD|270=1.11801|271=2000000|279=0|269=0|278=8388160463|55=EUR/USD|270=1.11799|271=4500000|279=0|269=0|278=8388160465|55=EUR/USD|270=1.11797|271=4000000|279=0|269=0|278=8388160466|55=EUR/USD|270=1.11795|271=7000000|279=0|269=0|278=8388160467|55=EUR/USD|270=1.11792|271=5500000|279=0|269=0|278=8388160468|55=EUR/USD|270=1.1179|271=4000000|279=0|269=0|278=8388160469|55=EUR/USD|270=1.11789|271=8000000|279=0|269=1|278=8388160476|55=EUR/USD|270=1.11818|271=1500000|279=0|269=1|278=8388160478|55=EUR/USD|270=1.1182|271=500000|279=0|269=1|278=8388160480|55=EUR/USD|270=1.11822|271=4000000|279=0|269=1|278=8388160481|55=EUR/USD|270=1.11824|271=5000000|279=0|269=1|278=8388160482|55=EUR/USD|270=1.11826|271=250000|279=0|269=1|278=8388160483|55=EUR/USD|270=1.11827|271=7000000|279=0|269=1|278=8388160484|55=EUR/USD|270=1.11828|271=6000000|279=0|269=1|278=8388160485|55=EUR/USD|270=1.11829|271=500000|279=0|269=1|278=8388160487|55=EUR/USD|270=1.11837|271=5000000|279=2|278=8388142447|55=EUR/USD|279=2|278=8388142448|55=EUR/USD|279=2|278=8388141097|55=EUR/USD|279=2|278=8388011473|55=EUR/USD|279=2|278=8388141100|55=EUR/USD|279=2|278=8387999566|55=EUR/USD|279=2|278=8388159526|55=EUR/USD|279=2|278=8388159527|55=EUR/USD|279=2|278=8388140527|55=EUR/USD|279=2|278=8388150630|55=EUR/USD|279=2|278=8388115916|55=EUR/USD|279=2|278=8388071739|55=EUR/USD|279=2|278=8388155470|55=EUR/USD|279=2|278=8388155964|55=EUR/USD|279=2|278=8388155472|55=EUR/USD|279=2|278=8387988000|55=EUR/USD|10=192| 1756
169:I:N 20150303-23:15:01.997 : 8=FIX.4.4|9=1108|35=X|34=169|49=77MARKETS|50=PRICE|52=20150303-23:15:01.955|56=1001083|268=22|279=0|269=0|278=8388162465|55=EUR/USD|270=1.118|271=5000000|279=0|269=0|278=8388162466|55=EUR/USD|270=1.11799|271=5500000|279=0|269=0|278=8388162467|55=EUR/USD|270=1.11798|271=1250000|279=0|269=0|278=8388162468|55=EUR/USD|270=1.11797|271=6000000|279=0|269=0|278=8388162469|55=EUR/USD|270=1.11795|271=4000000|279=0|269=0|278=8388162470|55=EUR/USD|270=1.11794|271=5000000|279=0|269=0|278=8388162471|55=EUR/USD|270=1.11793|271=4500000|279=0|269=0|278=8388162472|55=EUR/USD|270=1.1179|271=3000000|279=0|269=0|278=8388162473|55=EUR/USD|270=1.11789|271=5000000|279=0|269=1|278=8388162487|55=EUR/USD|270=1.11827|271=6000000|279=0|269=1|278=8388162488|55=EUR/USD|270=1.11828|271=7500000|279=2|278=8388142449|55=EUR/USD|279=2|278=8388160463|55=EUR/USD|279=2|278=8388141098|55=EUR/USD|279=2|278=8388160465|55=EUR/USD|279=2|278=8388160466|55=EUR/USD|279=2|278=8388160467|55=EUR/USD|279=2|278=8388160468|55=EUR/USD|279=2|278=8388160469|55=EUR/USD|279=2|278=8388160483|55=EUR/USD|279=2|278=8388160484|55=EUR/USD|279=2|278=8388160485|55=EUR/USD|10=248| 1165
170:I:N 20150303-23:15:02.453 : 8=FIX.4.4|9=452|35=X|34=170|49=77MARKETS|50=PRICE|52=20150303-23:15:02.412|56=1001083|268=8|279=0|269=0|278=8388166119|55=EUR/USD|270=1.11803|271=1500000|279=0|269=0|278=8388166120|55=EUR/USD|270=1.11802|271=3000000|279=0|269=1|278=8388166135|55=EUR/USD|270=1.11816|271=1000000|279=0|269=1|278=8388166136|55=EUR/USD|270=1.11817|271=6000000|279=2|278=8388117547|55=EUR/USD|279=2|278=8388160460|55=EUR/USD|279=2|278=8388142462|55=EUR/USD|279=2|278=8388142463|55=EUR/USD|10=206| 508
171:I:N 20150303-23:15:02.756 : 8=FIX.4.4|9=953|35=X|34=171|49=77MARKETS|50=PRICE|52=20150303-23:15:02.714|56=1001083|268=19|279=0|269=0|278=8388168289|55=EUR/USD|270=1.11808|271=1000000|279=0|269=0|278=8388168293|55=EUR/USD|270=1.11802|271=4000000|279=0|269=0|278=8388168294|55=EUR/USD|270=1.11801|271=4000000|279=0|269=0|278=8388168295|55=EUR/USD|270=1.118|271=2000000|279=0|269=0|278=8388168302|55=EUR/USD|270=1.11789|271=8000000|279=0|269=0|278=8388168303|55=EUR/USD|270=1.11785|271=1000000|279=0|269=1|278=8388168308|55=EUR/USD|270=1.11817|271=2000000|279=0|269=1|278=8388168309|55=EUR/USD|270=1.11818|271=5500000|279=0|269=1|278=8388168318|55=EUR/USD|270=1.11829|271=3000000|279=2|278=8388159515|55=EUR/USD|279=2|278=8388166120|55=EUR/USD|279=2|278=8388160461|55=EUR/USD|279=2|278=8388162465|55=EUR/USD|279=2|278=8388162472|55=EUR/USD|279=2|278=8388162473|55=EUR/USD|279=2|278=8388159529|55=EUR/USD|279=2|278=8388166136|55=EUR/USD|279=2|278=8388160476|55=EUR/USD|279=2|278=8388159543|55=EUR/USD|10=202| 1009
172:I:N 20150303-23:15:02.994 : 8=FIX.4.4|9=512|35=X|34=172|49=77MARKETS|50=PRICE|52=20150303-23:15:02.953|56=1001083|268=9|279=0|269=0|278=8388169520|55=EUR/USD|270=1.11809|271=1000000|279=0|269=0|278=8388169533|55=EUR/USD|270=1.1179|271=3000000|279=0|269=0|278=8388169534|55=EUR/USD|270=1.11789|271=5000000|279=0|269=0|278=8388169535|55=EUR/USD|270=1.11786|271=1000000|279=0|269=1|278=8388169550|55=EUR/USD|270=1.1183|271=3000000|279=2|278=8388168289|55=EUR/USD|279=2|278=8388168302|55=EUR/USD|279=2|278=8388168303|55=EUR/USD|279=2|278=8388168318|55=EUR/USD|10=214| 568
173:I:N 20150303-23:15:04.749 : 8=FIX.4.4|9=484|35=X|34=173|49=77MARKETS|50=PRICE|52=20150303-23:15:04.708|56=1001083|268=9|279=0|269=0|278=8388180455|55=EUR/USD|270=1.11808|271=1000000|279=0|269=0|278=8388180468|55=EUR/USD|270=1.11789|271=8000000|279=0|269=0|278=8388180469|55=EUR/USD|270=1.11785|271=1000000|279=0|269=1|278=8388180484|55=EUR/USD|270=1.11829|271=3000000|279=2|278=8388169520|55=EUR/USD|279=2|278=8388169533|55=EUR/USD|279=2|278=8388169534|55=EUR/USD|279=2|278=8388169535|55=EUR/USD|279=2|278=8388169550|55=EUR/USD|10=217| 540
174:I:N 20150303-23:15:04.995 : 8=FIX.4.4|9=418|35=X|34=174|49=77MARKETS|50=PRICE|52=20150303-23:15:04.954|56=1001083|268=7|279=0|269=0|278=8388181691|55=EUR/USD|270=1.11809|271=1000000|279=0|269=0|278=8388181704|55=EUR/USD|270=1.1179|271=3000000|279=0|269=0|278=8388181705|55=EUR/USD|270=1.11789|271=5000000|279=0|269=1|278=8388181721|55=EUR/USD|270=1.1183|271=3000000|279=2|278=8388180455|55=EUR/USD|279=2|278=8388180468|55=EUR/USD|279=2|278=8388180484|55=EUR/USD|10=238| 474
175:I:N 20150303-23:15:05.440 : 8=FIX.4.4|9=390|35=X|34=175|49=77MARKETS|50=PRICE|52=20150303-23:15:05.399|56=1001083|268=7|279=0|269=0|278=8388184270|55=EUR/USD|270=1.11808|271=1000000|279=0|269=0|278=8388184283|55=EUR/USD|270=1.11789|271=8000000|279=0|269=1|278=8388184299|55=EUR/USD|270=1.11829|271=3000000|279=2|278=8388181691|55=EUR/USD|279=2|278=8388181704|55=EUR/USD|279=2|278=8388181705|55=EUR/USD|279=2|278=8388181721|55=EUR/USD|10=242| 446
176:I:N 20150303-23:15:05.995 : 8=FIX.4.4|9=418|35=X|34=176|49=77MARKETS|50=PRICE|52=20150303-23:15:05.953|56=1001083|268=7|279=0|269=0|278=8388185592|55=EUR/USD|270=1.11809|271=1000000|279=0|269=0|278=8388185605|55=EUR/USD|270=1.1179|271=3000000|279=0|269=0|278=8388185606|55=EUR/USD|270=1.11789|271=5000000|279=0|269=1|278=8388185622|55=EUR/USD|270=1.1183|271=3000000|279=2|278=8388184270|55=EUR/USD|279=2|278=8388184283|55=EUR/USD|279=2|278=8388184299|55=EUR/USD|10=006| 474
177:I:N 20150303-23:15:06.286 : 8=FIX.4.4|9=452|35=X|34=177|49=77MARKETS|50=PRICE|52=20150303-23:15:06.245|56=1001083|268=8|279=0|269=0|278=8388187035|55=EUR/USD|270=1.11803|271=1000000|279=0|269=0|278=8388187036|55=EUR/USD|270=1.11802|271=4500000|279=0|269=1|278=8388187052|55=EUR/USD|270=1.11817|271=1500000|279=0|269=1|278=8388187056|55=EUR/USD|270=1.11821|271=1500000|279=2|278=8388166119|55=EUR/USD|279=2|278=8388168293|55=EUR/USD|279=2|278=8388168308|55=EUR/USD|279=2|278=8388093889|55=EUR/USD|10=016| 508
178:I:N 20150303-23:15:06.749 : 8=FIX.4.4|9=1391|35=X|34=178|49=77MARKETS|50=PRICE|52=20150303-23:15:06.707|56=1001083|268=28|279=0|269=0|278=8388189410|55=EUR/USD|270=1.11808|271=1000000|279=0|269=0|278=8388189411|55=EUR/USD|270=1.11805|271=500000|279=0|269=0|278=8388189414|55=EUR/USD|270=1.11802|271=3500000|279=0|269=0|278=8388189415|55=EUR/USD|270=1.11801|271=2000000|279=0|269=0|278=8388189417|55=EUR/USD|270=1.11799|271=8500000|279=0|269=0|278=8388189420|55=EUR/USD|270=1.11795|271=3000000|279=0|269=0|278=8388189421|55=EUR/USD|270=1.11794|271=6000000|279=0|269=0|278=8388189423|55=EUR/USD|270=1.11789|271=8000000|279=0|269=1|278=8388189425|55=EUR/USD|270=1.11812|271=500000|279=0|269=1|278=8388189430|55=EUR/USD|270=1.11818|271=1500000|279=0|269=1|278=8388189433|55=EUR/USD|270=1.11821|271=2500000|279=0|269=1|278=8388189435|55=EUR/USD|270=1.11823|271=4000000|279=0|269=1|278=8388189436|55=EUR/USD|270=1.11824|271=4000000|279=0|269=1|278=8388189440|55=EUR/USD|270=1.11829|271=3000000|279=2|278=8388185592|55=EUR/USD|279=2|278=8388071716|55=EUR/USD|279=2|278=8388187036|55=EUR/USD|279=2|278=8388168294|55=EUR/USD|279=2|278=8388162466|55=EUR/USD|279=2|278=8388162469|55=EUR/USD|279=2|278=8388162470|55=EUR/USD|279=2|278=8388185605|55=EUR/USD|279=2|278=8388185606|55=EUR/USD|279=2|278=8388071730|55=EUR/USD|279=2|278=8388168309|55=EUR/USD|279=2|278=8388187056|55=EUR/USD|279=2|278=8388160481|55=EUR/USD|279=2|278=8388185622|55=EUR/USD|10=188| 1448
179:I:N 20150303-23:15:06.995 : 8=FIX.4.4|9=639|35=X|34=179|49=77MARKETS|50=PRICE|52=20150303-23:15:06.954|56=1001083|268=12|279=0|269=0|278=8388190264|55=EUR/USD|270=1.11806|271=500000|279=0|269=0|278=8388190273|55=EUR/USD|270=1.11795|271=4000000|279=0|269=0|278=8388190274|55=EUR/USD|270=1.11794|271=5000000|279=0|269=1|278=8388190278|55=EUR/USD|270=1.11813|271=500000|279=0|269=1|278=8388190288|55=EUR/USD|270=1.11823|271=3000000|279=0|269=1|278=8388190289|55=EUR/USD|270=1.11824|271=5000000|279=2|278=8388189411|55=EUR/USD|279=2|278=8388189420|55=EUR/USD|279=2|278=8388189421|55=EUR/USD|279=2|278=8388189425|55=EUR/USD|279=2|278=8388189435|55=EUR/USD|279=2|278=8388189436|55=EUR/USD|10=168| 695
180:I:N 20150303-23:15:07.294 : 8=FIX.4.4|9=451|35=X|34=180|49=77MARKETS|50=PRICE|52=20150303-23:15:07.253|56=1001083|268=8|279=0|269=0|278=8388191792|55=EUR/USD|270=1.11802|271=3000000|279=0|269=0|278=8388191793|55=EUR/USD|270=1.11801|271=2500000|279=0|269=1|278=8388191810|55=EUR/USD|270=1.1182|271=1000000|279=0|269=1|278=8388191811|55=EUR/USD|270=1.11821|271=2000000|279=2|278=8388189414|55=EUR/USD|279=2|278=8388189415|55=EUR/USD|279=2|278=8388160478|55=EUR/USD|279=2|278=8388189433|55=EUR/USD|10=194| 507
181:I:N 20150303-23:15:07.442 : 8=FIX.4.4|9=825|35=X|34=181|49=77MARKETS|50=PRICE|52=20150303-23:15:07.400|56=1001083|268=16|279=0|269=0|278=8388192964|55=EUR/USD|270=1.11805|271=500000|279=0|269=0|278=8388192968|55=EUR/USD|270=1.11801|271=1500000|279=0|269=0|278=8388192969|55=EUR/USD|270=1.118|271=3000000|279=0|269=0|278=8388192973|55=EUR/USD|270=1.11795|271=3000000|279=0|269=0|278=8388192974|55=EUR/USD|270=1.11794|271=6000000|279=0|269=1|278=8388192978|55=EUR/USD|270=1.11812|271=500000|279=0|269=1|278=8388192988|55=EUR/USD|270=1.11823|271=4000000|279=0|269=1|278=8388192989|55=EUR/USD|270=1.11824|271=4000000|279=2|278=8388190264|55=EUR/USD|279=2|278=8388191793|55=EUR/USD|279=2|278=8388168295|55=EUR/USD|279=2|278=8388190273|55=EUR/USD|279=2|278=8388190274|55=EUR/USD|279=2|278=8388190278|55=EUR/USD|279=2|278=8388190288|55=EUR/USD|279=2|278=8388190289|55=EUR/USD|10=033| 881
182:I:N 20150303-23:15:07.995 : 8=FIX.4.4|9=639|35=X|34=182|49=77MARKETS|50=PRICE|52=20150303-23:15:07.954|56=1001083|268=12|279=0|269=0|278=8388196433|55=EUR/USD|270=1.11806|271=500000|279=0|269=0|278=8388196442|55=EUR/USD|270=1.11795|271=4000000|279=0|269=0|278=8388196443|55=EUR/USD|270=1.11794|271=5000000|279=0|269=1|278=8388196447|55=EUR/USD|270=1.11813|271=500000|279=0|269=1|278=8388196457|55=EUR/USD|270=1.11823|271=3000000|279=0|269=1|278=8388196458|55=EUR/USD|270=1.11824|271=5000000|279=2|278=8388192964|55=EUR/USD|279=2|278=8388192973|55=EUR/USD|279=2|278=8388192974|55=EUR/USD|279=2|278=8388192978|55=EUR/USD|279=2|278=8388192988|55=EUR/USD|279=2|278=8388192989|55=EUR/USD|10=229| 695
183:I:N 20150303-23:15:08.296 : 8=FIX.4.4|9=450|35=X|34=183|49=77MARKETS|50=PRICE|52=20150303-23:15:08.255|56=1001083|268=8|279=0|269=0|278=8388198605|55=EUR/USD|270=1.11802|271=3500000|279=0|269=0|278=8388198606|55=EUR/USD|270=1.11801|271=1000000|279=0|269=1|278=8388198621|55=EUR/USD|270=1.11818|271=2000000|279=0|269=1|278=8388198623|55=EUR/USD|270=1.1182|271=500000|279=2|278=8388191792|55=EUR/USD|279=2|278=8388192968|55=EUR/USD|279=2|278=8388189430|55=EUR/USD|279=2|278=8388191810|55=EUR/USD|10=175| 506
184:I:N 20150303-23:15:08.585 : 8=FIX.4.4|9=733|35=X|34=184|49=77MARKETS|50=PRICE|52=20150303-23:15:08.544|56=1001083|268=14|279=0|269=0|278=8388199596|55=EUR/USD|270=1.11803|271=1500000|279=0|269=0|278=8388199597|55=EUR/USD|270=1.11802|271=2500000|279=0|269=0|278=8388199599|55=EUR/USD|270=1.118|271=5000000|279=0|269=0|278=8388199600|55=EUR/USD|270=1.11799|271=5500000|279=0|269=1|278=8388199614|55=EUR/USD|270=1.11819|271=4000000|279=0|269=1|278=8388199616|55=EUR/USD|270=1.11821|271=3500000|279=0|269=1|278=8388199618|55=EUR/USD|270=1.11823|271=2000000|279=2|278=8388187035|55=EUR/USD|279=2|278=8388198605|55=EUR/USD|279=2|278=8388192969|55=EUR/USD|279=2|278=8388189417|55=EUR/USD|279=2|278=8388113627|55=EUR/USD|279=2|278=8388191811|55=EUR/USD|279=2|278=8388196457|55=EUR/USD|10=186| 789
185:I:N 20150303-23:15:08.847 : 8=FIX.4.4|9=450|35=X|34=185|49=77MARKETS|50=PRICE|52=20150303-23:15:08.806|56=1001083|268=8|279=0|269=0|278=8388200561|55=EUR/USD|270=1.11803|271=3000000|279=0|269=1|278=8388200578|55=EUR/USD|270=1.11818|271=1500000|279=0|269=1|278=8388200580|55=EUR/USD|270=1.1182|271=1000000|279=0|269=1|278=8388200583|55=EUR/USD|270=1.11823|271=500000|279=2|278=8388199596|55=EUR/USD|279=2|278=8388198621|55=EUR/USD|279=2|278=8388198623|55=EUR/USD|279=2|278=8388199618|55=EUR/USD|10=158| 506
186:I:N 20150303-23:15:08.995 : 8=FIX.4.4|9=262|35=X|34=186|49=77MARKETS|50=PRICE|52=20150303-23:15:08.954|56=1001083|268=4|279=0|269=1|278=8388201299|55=EUR/USD|270=1.11818|271=500000|279=0|269=1|278=8388201301|55=EUR/USD|270=1.1182|271=2000000|279=2|278=8388200578|55=EUR/USD|279=2|278=8388200580|55=EUR/USD|10=214| 318
187:I:N 20150303-23:15:09.298 : 8=FIX.4.4|9=390|35=X|34=187|49=77MARKETS|50=PRICE|52=20150303-23:15:09.257|56=1001083|268=7|279=0|269=0|278=8388204069|55=EUR/USD|270=1.11803|271=3500000|279=0|269=0|278=8388204070|55=EUR/USD|270=1.11802|271=2000000|279=0|269=1|278=8388204085|55=EUR/USD|270=1.11817|271=2000000|279=2|278=8388200561|55=EUR/USD|279=2|278=8388199597|55=EUR/USD|279=2|278=8388187052|55=EUR/USD|279=2|278=8388201299|55=EUR/USD|10=203| 446
188:I:N 20150303-23:15:09.995 : 8=FIX.4.4|9=325|35=X|34=188|49=77MARKETS|50=PRICE|52=20150303-23:15:09.954|56=1001083|268=5|279=0|269=1|278=8388207800|55=EUR/USD|270=1.11818|271=1000000|279=0|269=1|278=8388207801|55=EUR/USD|270=1.11819|271=6000000|279=0|269=1|278=8388207803|55=EUR/USD|270=1.11821|271=500000|279=2|278=8388199614|55=EUR/USD|279=2|278=8388199616|55=EUR/USD|10=077| 381
189:I:N 20150303-23:15:10.253 : 8=FIX.4.4|9=575|35=X|34=189|49=77MARKETS|50=PRICE|52=20150303-23:15:10.212|56=1001083|268=10|279=0|269=0|278=8388209590|55=EUR/USD|270=1.118|271=4500000|279=0|269=0|278=8388209591|55=EUR/USD|270=1.11799|271=4500000|279=0|269=0|278=8388209593|55=EUR/USD|270=1.11797|271=3500000|279=0|269=0|278=8388209594|55=EUR/USD|270=1.11796|271=1000000|279=0|269=0|278=8388209596|55=EUR/USD|270=1.11794|271=3000000|279=0|269=0|278=8388209598|55=EUR/USD|270=1.11791|271=5000000|279=2|278=8388199599|55=EUR/USD|279=2|278=8388199600|55=EUR/USD|279=2|278=8388162468|55=EUR/USD|279=2|278=8388196443|55=EUR/USD|10=099| 631
190:I:N 20150303-23:15:10.645 : 8=FIX.4.4|9=545|35=X|34=190|49=77MARKETS|50=PRICE|52=20150303-23:15:10.604|56=1001083|268=10|279=0|269=0|278=8388211718|55=EUR/USD|270=1.11804|271=1000000|279=0|269=0|278=8388211719|55=EUR/USD|270=1.11803|271=4000000|279=0|269=0|278=8388211720|55=EUR/USD|270=1.11802|271=4000000|279=0|269=0|278=8388211721|55=EUR/USD|270=1.11801|271=1500000|279=0|269=0|278=8388211722|55=EUR/USD|270=1.118|271=1000000|279=2|278=8388160458|55=EUR/USD|279=2|278=8388204069|55=EUR/USD|279=2|278=8388204070|55=EUR/USD|279=2|278=8388198606|55=EUR/USD|279=2|278=8388209590|55=EUR/USD|10=075| 601
191:I:N 20150303-23:15:10.829 : 8=FIX.4.4|9=2455|35=X|34=191|49=77MARKETS|50=PRICE|52=20150303-23:15:10.787|56=1001083|268=52|279=0|269=0|278=8388213320|55=EUR/USD|270=1.11809|271=1000000|279=0|269=0|278=8388213321|55=EUR/USD|270=1.11806|271=1000000|279=0|269=0|278=8388213322|55=EUR/USD|270=1.11805|271=2500000|279=0|269=0|278=8388213323|55=EUR/USD|270=1.11804|271=3000000|279=0|269=0|278=8388213324|55=EUR/USD|270=1.11803|271=3000000|279=0|269=0|278=8388213325|55=EUR/USD|270=1.11802|271=1000000|279=0|269=0|278=8388213327|55=EUR/USD|270=1.118|271=3000000|279=0|269=0|278=8388213328|55=EUR/USD|270=1.11799|271=2000000|279=0|269=0|278=8388213329|55=EUR/USD|270=1.11798|271=5250000|279=0|269=0|278=8388213330|55=EUR/USD|270=1.11796|271=3000000|279=0|269=0|278=8388213332|55=EUR/USD|270=1.11793|271=9500000|279=0|269=0|278=8388213333|55=EUR/USD|270=1.1179|271=8000000|279=0|269=0|278=8388213334|55=EUR/USD|270=1.11786|271=1000000|279=0|269=1|278=8388213336|55=EUR/USD|270=1.11817|271=500000|279=0|269=1|278=8388213337|55=EUR/USD|270=1.11818|271=2000000|279=0|269=1|278=8388213338|55=EUR/USD|270=1.11819|271=4500000|279=0|269=1|278=8388213339|55=EUR/USD|270=1.1182|271=1000000|279=0|269=1|278=8388213341|55=EUR/USD|270=1.11822|271=6000000|279=0|269=1|278=8388213343|55=EUR/USD|270=1.11824|271=7000000|279=0|269=1|278=8388213344|55=EUR/USD|270=1.11826|271=1250000|279=0|269=1|278=8388213346|55=EUR/USD|270=1.11828|271=4500000|279=0|269=1|278=8388213347|55=EUR/USD|270=1.1183|271=3000000|279=0|269=1|278=8388213348|55=EUR/USD|270=1.11831|271=3000000|279=0|269=1|278=8388213349|55=EUR/USD|270=1.11838|271=5000000|279=2|278=8388189410|55=EUR/USD|279=2|278=8388196433|55=EUR/USD|279=2|278=8388211718|55=EUR/USD|279=2|278=8388211719|55=EUR/USD|279=2|278=8388211720|55=EUR/USD|279=2|278=8388211722|55=EUR/USD|279=2|278=8388209591|55=EUR/USD|279=2|278=8388162467|55=EUR/USD|279=2|278=8388209593|55=EUR/USD|279=2|278=8388209594|55=EUR/USD|279=2|278=8388209596|55=EUR/USD|279=2|278=8388162471|55=EUR/USD|279=2|278=8388209598|55=EUR/USD|279=2|278=8388189423|55=EUR/USD|279=2|278=8388180469|55=EUR/USD|279=2|278=8388142460|55=EUR/USD|279=2|278=8388142461|55=EUR/USD|279=2|278=8388166135|55=EUR/USD|279=2|278=8388204085|55=EUR/USD|279=2|278=8388207800|55=EUR/USD|279=2|278=8388207801|55=EUR/USD|279=2|278=8388201301|55=EUR/USD|279=2|278=8388160480|55=EUR/USD|279=2|278=8388196458|55=EUR/USD|279=2|278=8388160482|55=EUR/USD|279=2|278=8388162488|55=EUR/USD|279=2|278=8388189440|55=EUR/USD|279=2|278=8388160487|55=EUR/USD|10=039| 2512
192:I:N 20150303-23:15:10.997 : 8=FIX.4.4|9=1454|35=X|34=192|49=77MARKETS|50=PRICE|52=20150303-23:15:10.955|56=1001083|268=30|279=0|269=0|278=8388214001|55=EUR/USD|270=1.11807|271=1500000|279=0|269=0|278=8388214002|55=EUR/USD|270=1.11806|271=2000000|279=0|269=0|278=8388214003|55=EUR/USD|270=1.11805|271=1500000|279=0|269=0|278=8388214007|55=EUR/USD|270=1.11801|271=2000000|279=0|269=0|278=8388214008|55=EUR/USD|270=1.118|271=4000000|279=0|269=0|278=8388214009|55=EUR/USD|270=1.11798|271=7250000|279=0|269=0|278=8388214010|55=EUR/USD|270=1.11795|271=10500000|279=0|269=0|278=8388214011|55=EUR/USD|270=1.11794|271=3000000|279=0|269=1|278=8388214015|55=EUR/USD|270=1.11818|271=1500000|279=0|269=1|278=8388214016|55=EUR/USD|270=1.11819|271=2500000|279=0|269=1|278=8388214017|55=EUR/USD|270=1.1182|271=4000000|279=0|269=1|278=8388214019|55=EUR/USD|270=1.11822|271=4500000|279=0|269=1|278=8388214022|55=EUR/USD|270=1.11825|271=1500000|279=0|269=1|278=8388214025|55=EUR/USD|270=1.1183|271=7500000|279=2|278=8388213321|55=EUR/USD|279=2|278=8388213322|55=EUR/USD|279=2|278=8388211721|55=EUR/USD|279=2|278=8388213327|55=EUR/USD|279=2|278=8388213328|55=EUR/USD|279=2|278=8388213329|55=EUR/USD|279=2|278=8388213330|55=EUR/USD|279=2|278=8388196442|55=EUR/USD|279=2|278=8388213332|55=EUR/USD|279=2|278=8388213336|55=EUR/USD|279=2|278=8388213337|55=EUR/USD|279=2|278=8388213338|55=EUR/USD|279=2|278=8388213339|55=EUR/USD|279=2|278=8388213341|55=EUR/USD|279=2|278=8388213346|55=EUR/USD|279=2|278=8388213347|55=EUR/USD|10=163| 1511
193:I:N 20150303-23:15:11.743 : 8=FIX.4.4|9=704|35=X|34=193|49=77MARKETS|50=PRICE|52=20150303-23:15:11.702|56=1001083|268=14|279=0|269=0|278=8388217906|55=EUR/USD|270=1.11805|271=2000000|279=0|269=0|278=8388217907|55=EUR/USD|270=1.11804|271=4500000|279=0|269=0|278=8388217908|55=EUR/USD|270=1.11803|271=1000000|279=0|269=1|278=8388217919|55=EUR/USD|270=1.11819|271=2000000|279=0|269=1|278=8388217920|55=EUR/USD|270=1.1182|271=4500000|279=0|269=1|278=8388217923|55=EUR/USD|270=1.11824|271=8000000|279=2|278=8388214001|55=EUR/USD|279=2|278=8388214003|55=EUR/USD|279=2|278=8388213323|55=EUR/USD|279=2|278=8388213324|55=EUR/USD|279=2|278=8388214016|55=EUR/USD|279=2|278=8388214017|55=EUR/USD|279=2|278=8388200583|55=EUR/USD|279=2|278=8388213343|55=EUR/USD|10=184| 760
194:I:N 20150303-23:15:11.995 : 8=FIX.4.4|9=1358|35=X|34=194|49=77MARKETS|50=PRICE|52=20150303-23:15:11.954|56=1001083|268=27|279=0|269=0|278=8388218784|55=EUR/USD|270=1.11807|271=500000|279=0|269=0|278=8388218785|55=EUR/USD|270=1.11806|271=1500000|279=0|269=0|278=8388218786|55=EUR/USD|270=1.11805|271=5000000|279=0|269=0|278=8388218787|55=EUR/USD|270=1.11804|271=1500000|279=0|269=0|278=8388218788|55=EUR/USD|270=1.11803|271=2500000|279=0|269=0|278=8388218790|55=EUR/USD|270=1.11801|271=500000|279=0|269=0|278=8388218792|55=EUR/USD|270=1.11798|271=10250000|279=0|269=0|278=8388218793|55=EUR/USD|270=1.11795|271=7500000|279=0|269=1|278=8388218798|55=EUR/USD|270=1.11818|271=1000000|279=0|269=1|278=8388218799|55=EUR/USD|270=1.11819|271=500000|279=0|269=1|278=8388218800|55=EUR/USD|270=1.1182|271=3500000|279=0|269=1|278=8388218801|55=EUR/USD|270=1.11821|271=3500000|279=0|269=1|278=8388218803|55=EUR/USD|270=1.11824|271=5000000|279=0|269=1|278=8388218804|55=EUR/USD|270=1.11825|271=4500000|279=2|278=8388214002|55=EUR/USD|279=2|278=8388217906|55=EUR/USD|279=2|278=8388217907|55=EUR/USD|279=2|278=8388217908|55=EUR/USD|279=2|278=8388214007|55=EUR/USD|279=2|278=8388214009|55=EUR/USD|279=2|278=8388214010|55=EUR/USD|279=2|278=8388214015|55=EUR/USD|279=2|278=8388217919|55=EUR/USD|279=2|278=8388217920|55=EUR/USD|279=2|278=8388207803|55=EUR/USD|279=2|278=8388217923|55=EUR/USD|279=2|278=8388214022|55=EUR/USD|10=157| 1415
195:I:N 20150303-23:15:12.845 : 8=FIX.4.4|9=328|35=X|34=195|49=77MARKETS|50=PRICE|52=20150303-23:15:12.804|56=1001083|268=6|279=0|269=0|278=8388222055|55=EUR/USD|270=1.11806|271=2000000|279=0|269=1|278=8388222068|55=EUR/USD|270=1.11818|271=1500000|279=2|278=8388218784|55=EUR/USD|279=2|278=8388218785|55=EUR/USD|279=2|278=8388218798|55=EUR/USD|279=2|278=8388218799|55=EUR/USD|10=207| 384
196:I:N 20150303-23:15:12.994 : 8=FIX.4.4|9=607|35=X|34=196|49=77MARKETS|50=PRICE|52=20150303-23:15:12.953|56=1001083|268=11|279=0|269=0|278=8388222573|55=EUR/USD|270=1.11806|271=1000000|279=0|269=0|278=8388222574|55=EUR/USD|270=1.11805|271=3000000|279=0|269=0|278=8388222575|55=EUR/USD|270=1.11804|271=4500000|279=0|269=1|278=8388222587|55=EUR/USD|270=1.11819|271=1000000|279=0|269=1|278=8388222588|55=EUR/USD|270=1.1182|271=5500000|279=0|269=1|278=8388222589|55=EUR/USD|270=1.11821|271=500000|279=2|278=8388222055|55=EUR/USD|279=2|278=8388218786|55=EUR/USD|279=2|278=8388218787|55=EUR/USD|279=2|278=8388218800|55=EUR/USD|279=2|278=8388218801|55=EUR/USD|10=197| 663
197:I:N 20150303-23:15:13.995 : 8=FIX.4.4|9=202|35=X|34=197|49=77MARKETS|50=PRICE|52=20150303-23:15:13.954|56=1001083|268=3|279=0|269=1|278=8388226216|55=EUR/USD|270=1.11818|271=2500000|279=2|278=8388222068|55=EUR/USD|279=2|278=8388222587|55=EUR/USD|10=040| 258
198:I:N 20150303-23:15:16.097 : 8=FIX.4.4|9=418|35=X|34=198|49=77MARKETS|50=PRICE|52=20150303-23:15:16.056|56=1001083|268=7|279=0|269=0|278=8388235332|55=EUR/USD|270=1.11806|271=500000|279=0|269=0|278=8388235333|55=EUR/USD|270=1.11805|271=3500000|279=0|269=1|278=8388235345|55=EUR/USD|270=1.11818|271=2000000|279=0|269=1|278=8388235346|55=EUR/USD|270=1.11819|271=500000|279=2|278=8388222573|55=EUR/USD|279=2|278=8388222574|55=EUR/USD|279=2|278=8388226216|55=EUR/USD|10=223| 474
199:I:N 20150303-23:15:16.997 : 8=FIX.4.4|9=1016|35=X|34=199|49=77MARKETS|50=PRICE|52=20150303-23:15:16.955|56=1001083|268=20|279=0|269=0|278=8388239620|55=EUR/USD|270=1.11805|271=2500000|279=0|269=0|278=8388239621|55=EUR/USD|270=1.11804|271=1000000|279=0|269=0|278=8388239622|55=EUR/USD|270=1.11803|271=5500000|279=0|269=0|278=8388239624|55=EUR/USD|270=1.11801|271=2000000|279=0|269=1|278=8388239632|55=EUR/USD|270=1.11818|271=1000000|279=0|269=1|278=8388239633|55=EUR/USD|270=1.11819|271=1500000|279=0|269=1|278=8388239634|55=EUR/USD|270=1.1182|271=2500000|279=0|269=1|278=8388239635|55=EUR/USD|270=1.11821|271=3500000|279=0|269=1|278=8388239638|55=EUR/USD|270=1.11825|271=3000000|279=0|269=1|278=8388239639|55=EUR/USD|270=1.11826|271=2750000|279=2|278=8388235333|55=EUR/USD|279=2|278=8388222575|55=EUR/USD|279=2|278=8388218788|55=EUR/USD|279=2|278=8388218790|55=EUR/USD|279=2|278=8388235345|55=EUR/USD|279=2|278=8388235346|55=EUR/USD|279=2|278=8388222588|55=EUR/USD|279=2|278=8388222589|55=EUR/USD|279=2|278=8388218804|55=EUR/USD|279=2|278=8388213344|55=EUR/USD|10=087| 1073
200:I:N 20150303-23:15:17.176 : 8=FIX.4.4|9=1323|35=X|34=200|49=77MARKETS|50=PRICE|52=20150303-23:15:17.130|56=1001083|268=25|279=0|269=0|278=8388240657|55=EUR/USD|270=1.11801|271=1500000|279=0|269=0|278=8388240658|55=EUR/USD|270=1.118|271=3500000|279=0|269=0|278=8388240659|55=EUR/USD|270=1.11799|271=1000000|279=0|269=0|278=8388240660|55=EUR/USD|270=1.11798|271=7250000|279=0|269=0|278=8388240661|55=EUR/USD|270=1.11797|271=3000000|279=0|269=0|278=8388240662|55=EUR/USD|270=1.11795|271=2500000|279=0|269=0|278=8388240663|55=EUR/USD|270=1.11794|271=8000000|279=0|269=1|278=8388240667|55=EUR/USD|270=1.11814|271=500000|279=0|269=1|278=8388240668|55=EUR/USD|270=1.11816|271=500000|279=0|269=1|278=8388240669|55=EUR/USD|270=1.11817|271=1000000|279=0|269=1|278=8388240671|55=EUR/USD|270=1.11819|271=4500000|279=0|269=1|278=8388240673|55=EUR/USD|270=1.11821|271=3000000|279=0|269=1|278=8388240674|55=EUR/USD|270=1.11822|271=8500000|279=0|269=1|278=8388240675|55=EUR/USD|270=1.11824|271=1000000|279=0|269=1|278=8388240678|55=EUR/USD|270=1.11827|271=1000000|279=2|278=8388239624|55=EUR/USD|279=2|278=8388214008|55=EUR/USD|279=2|278=8388218792|55=EUR/USD|279=2|278=8388218793|55=EUR/USD|279=2|278=8388214011|55=EUR/USD|279=2|278=8388239633|55=EUR/USD|279=2|278=8388239635|55=EUR/USD|279=2|278=8388214019|55=EUR/USD|279=2|278=8388218803|55=EUR/USD|279=2|278=8388162487|55=EUR/USD|10=090| 1380
201:I:N 20150303-23:15:17.299 : 8=FIX.4.4|9=1611|35=X|34=201|49=77MARKETS|50=PRICE|52=20150303-23:15:17.258|56=1001083|268=33|279=0|269=0|278=8388241849|55=EUR/USD|270=1.11806|271=1000000|279=0|269=0|278=8388241850|55=EUR/USD|270=1.11805|271=2000000|279=0|269=0|278=8388241852|55=EUR/USD|270=1.11803|271=6500000|279=0|269=0|278=8388241855|55=EUR/USD|270=1.11799|271=4000000|279=0|269=0|278=8388241856|55=EUR/USD|270=1.11798|271=4250000|279=0|269=0|278=8388241860|55=EUR/USD|270=1.11791|271=5000000|279=0|269=0|278=8388241861|55=EUR/USD|270=1.1179|271=3000000|279=0|269=1|278=8388241863|55=EUR/USD|270=1.11812|271=500000|279=0|269=1|278=8388241866|55=EUR/USD|270=1.11818|271=2000000|279=0|269=1|278=8388241867|55=EUR/USD|270=1.11819|271=1500000|279=0|269=1|278=8388241869|55=EUR/USD|270=1.11821|271=3500000|279=0|269=1|278=8388241870|55=EUR/USD|270=1.11822|271=4000000|279=0|269=1|278=8388241871|55=EUR/USD|270=1.11824|271=4000000|279=0|269=1|278=8388241873|55=EUR/USD|270=1.11826|271=1750000|279=0|269=1|278=8388241874|55=EUR/USD|270=1.11827|271=6000000|279=0|269=1|278=8388241875|55=EUR/USD|270=1.11828|271=3000000|279=2|278=8388235332|55=EUR/USD|279=2|278=8388239620|55=EUR/USD|279=2|278=8388239622|55=EUR/USD|279=2|278=8388213325|55=EUR/USD|279=2|278=8388240659|55=EUR/USD|279=2|278=8388240660|55=EUR/USD|279=2|278=8388213333|55=EUR/USD|279=2|278=8388240668|55=EUR/USD|279=2|278=8388240669|55=EUR/USD|279=2|278=8388239632|55=EUR/USD|279=2|278=8388240671|55=EUR/USD|279=2|278=8388240673|55=EUR/USD|279=2|278=8388240674|55=EUR/USD|279=2|278=8388240675|55=EUR/USD|279=2|278=8388239639|55=EUR/USD|279=2|278=8388240678|55=EUR/USD|279=2|278=8388213348|55=EUR/USD|10=211| 1668
202:I:N 20150303-23:15:17.800 : 8=FIX.4.4|9=670|35=X|34=202|49=77MARKETS|50=PRICE|52=20150303-23:15:17.759|56=1001083|268=12|279=0|269=1|278=8388244995|55=EUR/USD|270=1.11816|271=500000|279=0|269=1|278=8388244996|55=EUR/USD|270=1.11817|271=1000000|279=0|269=1|278=8388244998|55=EUR/USD|270=1.11819|271=4500000|279=0|269=1|278=8388245000|55=EUR/USD|270=1.11821|271=3000000|279=0|269=1|278=8388245001|55=EUR/USD|270=1.11822|271=8000000|279=0|269=1|278=8388245002|55=EUR/USD|270=1.11824|271=1000000|279=0|269=1|278=8388245005|55=EUR/USD|270=1.11827|271=1000000|279=2|278=8388241867|55=EUR/USD|279=2|278=8388241869|55=EUR/USD|279=2|278=8388241870|55=EUR/USD|279=2|278=8388241871|55=EUR/USD|279=2|278=8388241874|55=EUR/USD|10=024| 726
203:I:N 20150303-23:15:17.998 : 8=FIX.4.4|9=767|35=X|34=203|49=77MARKETS|50=PRICE|52=20150303-23:15:17.957|56=1001083|268=15|279=0|269=0|278=8388246233|55=EUR/USD|270=1.11806|271=1500000|279=0|269=0|278=8388246234|55=EUR/USD|270=1.11805|271=2500000|279=0|269=0|278=8388246235|55=EUR/USD|270=1.11804|271=3000000|279=0|269=0|278=8388246236|55=EUR/USD|270=1.11803|271=3500000|279=0|269=1|278=8388246251|55=EUR/USD|270=1.11817|271=1500000|279=0|269=1|278=8388246252|55=EUR/USD|270=1.11818|271=3000000|279=0|269=1|278=8388246253|55=EUR/USD|270=1.11819|271=6000000|279=2|278=8388241849|55=EUR/USD|279=2|278=8388241850|55=EUR/USD|279=2|278=8388239621|55=EUR/USD|279=2|278=8388241852|55=EUR/USD|279=2|278=8388244996|55=EUR/USD|279=2|278=8388241866|55=EUR/USD|279=2|278=8388244998|55=EUR/USD|279=2|278=8388245000|55=EUR/USD|10=107| 823
204:I:N 20150303-23:15:18.121 : 8=FIX.4.4|9=640|35=X|34=204|49=77MARKETS|50=PRICE|52=20150303-23:15:18.080|56=1001083|268=12|279=0|269=0|278=8388247210|55=EUR/USD|270=1.11807|271=500000|279=0|269=0|278=8388247211|55=EUR/USD|270=1.11806|271=1000000|279=0|269=0|278=8388247220|55=EUR/USD|270=1.11796|271=1000000|279=0|269=0|278=8388247221|55=EUR/USD|270=1.11795|271=1500000|279=0|269=1|278=8388247227|55=EUR/USD|270=1.11814|271=1000000|279=0|269=1|278=8388247234|55=EUR/USD|270=1.11825|271=4000000|279=2|278=8388246233|55=EUR/USD|279=2|278=8388240662|55=EUR/USD|279=2|278=8388196447|55=EUR/USD|279=2|278=8388240667|55=EUR/USD|279=2|278=8388245002|55=EUR/USD|279=2|278=8388239638|55=EUR/USD|10=126| 696
205:I:N 20150303-23:15:18.330 : 8=FIX.4.4|9=231|35=X|34=205|49=77MARKETS|50=PRICE|52=20150303-23:15:18.289|56=1001083|268=3|279=0|269=0|278=8388248739|55=EUR/USD|270=1.11802|271=1000000|279=0|269=0|278=8388248740|55=EUR/USD|270=1.11801|271=500000|279=2|278=8388240657|55=EUR/USD|10=100| 287
206:I:N 20150303-23:15:18.871 : 8=FIX.4.4|9=578|35=X|34=206|49=77MARKETS|50=PRICE|52=20150303-23:15:18.830|56=1001083|268=11|279=0|269=0|278=8388250972|55=EUR/USD|270=1.11807|271=1000000|279=0|269=0|278=8388250973|55=EUR/USD|270=1.11806|271=500000|279=0|269=0|278=8388250977|55=EUR/USD|270=1.11802|271=1500000|279=0|269=1|278=8388250991|55=EUR/USD|270=1.11817|271=1000000|279=0|269=1|278=8388250992|55=EUR/USD|270=1.11818|271=3500000|279=2|278=8388247210|55=EUR/USD|279=2|278=8388247211|55=EUR/USD|279=2|278=8388248739|55=EUR/USD|279=2|278=8388248740|55=EUR/USD|279=2|278=8388246251|55=EUR/USD|279=2|278=8388246252|55=EUR/USD|10=135| 634
207:I:N 20150303-23:15:18.999 : 8=FIX.4.4|9=578|35=X|34=207|49=77MARKETS|50=PRICE|52=20150303-23:15:18.958|56=1001083|268=11|279=0|269=0|278=8388251347|55=EUR/USD|270=1.11806|271=1500000|279=0|269=0|278=8388251348|55=EUR/USD|270=1.11805|271=4500000|279=0|269=1|278=8388251365|55=EUR/USD|270=1.11818|271=2500000|279=0|269=1|278=8388251366|55=EUR/USD|270=1.11819|271=4000000|279=0|269=1|278=8388251367|55=EUR/USD|270=1.1182|271=5500000|279=2|278=8388250973|55=EUR/USD|279=2|278=8388246234|55=EUR/USD|279=2|278=8388246235|55=EUR/USD|279=2|278=8388250992|55=EUR/USD|279=2|278=8388246253|55=EUR/USD|279=2|278=8388239634|55=EUR/USD|10=156| 634
208:I:N 20150303-23:15:19.252 : 8=FIX.4.4|9=1636|35=X|34=208|49=77MARKETS|50=PRICE|52=20150303-23:15:19.211|56=1001083|268=33|279=0|269=0|278=8388254007|55=EUR/USD|270=1.1181|271=1000000|279=0|269=0|278=8388254008|55=EUR/USD|270=1.11808|271=500000|279=0|269=0|278=8388254009|55=EUR/USD|270=1.11807|271=500000|279=0|269=0|278=8388254017|55=EUR/USD|270=1.11797|271=4000000|279=0|269=0|278=8388254020|55=EUR/USD|270=1.11791|271=8000000|279=0|269=0|278=8388254021|55=EUR/USD|270=1.11787|271=1000000|279=0|269=1|278=8388254023|55=EUR/USD|270=1.11814|271=500000|279=0|269=1|278=8388254024|55=EUR/USD|270=1.11815|271=500000|279=0|269=1|278=8388254026|55=EUR/USD|270=1.11819|271=1000000|279=0|269=1|278=8388254028|55=EUR/USD|270=1.11821|271=500000|279=0|269=1|278=8388254029|55=EUR/USD|270=1.11822|271=4000000|279=0|269=1|278=8388254030|55=EUR/USD|270=1.11824|271=3000000|279=0|269=1|278=8388254031|55=EUR/USD|270=1.11825|271=3000000|279=0|269=1|278=8388254032|55=EUR/USD|270=1.11826|271=2750000|279=0|269=1|278=8388254033|55=EUR/USD|270=1.11827|271=6000000|279=0|269=1|278=8388254035|55=EUR/USD|270=1.1183|271=4500000|279=0|269=1|278=8388254036|55=EUR/USD|270=1.11831|271=3000000|279=2|278=8388213320|55=EUR/USD|279=2|278=8388250972|55=EUR/USD|279=2|278=8388240661|55=EUR/USD|279=2|278=8388247220|55=EUR/USD|279=2|278=8388241860|55=EUR/USD|279=2|278=8388241861|55=EUR/USD|279=2|278=8388213334|55=EUR/USD|279=2|278=8388247227|55=EUR/USD|279=2|278=8388244995|55=EUR/USD|279=2|278=8388250991|55=EUR/USD|279=2|278=8388251366|55=EUR/USD|279=2|278=8388245001|55=EUR/USD|279=2|278=8388247234|55=EUR/USD|279=2|278=8388241873|55=EUR/USD|279=2|278=8388245005|55=EUR/USD|279=2|278=8388214025|55=EUR/USD|10=165| 1693
209:I:N 20150303-23:15:19.425 : 8=FIX.4.4|9=1761|35=X|34=209|49=77MARKETS|50=PRICE|52=20150303-23:15:19.383|56=1001083|268=35|279=0|269=0|278=8388255427|55=EUR/USD|270=1.11806|271=500000|279=0|269=0|278=8388255428|55=EUR/USD|270=1.11805|271=2000000|279=0|269=0|278=8388255429|55=EUR/USD|270=1.11804|271=1000000|279=0|269=0|278=8388255431|55=EUR/USD|270=1.11802|271=4500000|279=0|269=0|278=8388255432|55=EUR/USD|270=1.11801|271=500000|279=0|269=0|278=8388255433|55=EUR/USD|270=1.118|271=4000000|279=0|269=0|278=8388255434|55=EUR/USD|270=1.11799|271=3000000|279=0|269=0|278=8388255435|55=EUR/USD|270=1.11798|271=7250000|279=0|269=0|278=8388255436|55=EUR/USD|270=1.11797|271=1000000|279=0|269=0|278=8388255437|55=EUR/USD|270=1.11795|271=6500000|279=0|269=0|278=8388255438|55=EUR/USD|270=1.11794|271=3000000|279=0|269=1|278=8388255444|55=EUR/USD|270=1.11816|271=500000|279=0|269=1|278=8388255445|55=EUR/USD|270=1.11817|271=1000000|279=0|269=1|278=8388255446|55=EUR/USD|270=1.11818|271=2000000|279=0|269=1|278=8388255447|55=EUR/USD|270=1.11819|271=3000000|279=0|269=1|278=8388255448|55=EUR/USD|270=1.1182|271=2500000|279=0|269=1|278=8388255449|55=EUR/USD|270=1.11822|271=8500000|279=0|269=1|278=8388255450|55=EUR/USD|270=1.11823|271=1000000|279=0|269=1|278=8388255454|55=EUR/USD|270=1.11827|271=1000000|279=2|278=8388254009|55=EUR/USD|279=2|278=8388251347|55=EUR/USD|279=2|278=8388251348|55=EUR/USD|279=2|278=8388250977|55=EUR/USD|279=2|278=8388240658|55=EUR/USD|279=2|278=8388241855|55=EUR/USD|279=2|278=8388241856|55=EUR/USD|279=2|278=8388254017|55=EUR/USD|279=2|278=8388247221|55=EUR/USD|279=2|278=8388240663|55=EUR/USD|279=2|278=8388251365|55=EUR/USD|279=2|278=8388254026|55=EUR/USD|279=2|278=8388251367|55=EUR/USD|279=2|278=8388254028|55=EUR/USD|279=2|278=8388254029|55=EUR/USD|279=2|278=8388254033|55=EUR/USD|10=201| 1818
210:I:N 20150303-23:15:19.585 : 8=FIX.4.4|9=200|35=X|34=210|49=77MARKETS|50=PRICE|52=20150303-23:15:19.545|56=1001083|268=3|279=0|269=0|278=8388256806|55=EUR/USD|270=1.118|271=7000000|279=2|278=8388255433|55=EUR/USD|279=2|278=8388255434|55=EUR/USD|10=183| 256
211:I:N 20150303-23:15:19.801 : 8=FIX.4.4|9=1138|35=X|34=211|49=77MARKETS|50=PRICE|52=20150303-23:15:19.759|56=1001083|268=23|279=0|269=0|278=8388258124|55=EUR/USD|270=1.11807|271=500000|279=0|269=0|278=8388258125|55=EUR/USD|270=1.11806|271=1500000|279=0|269=0|278=8388258126|55=EUR/USD|270=1.11805|271=500000|279=0|269=0|278=8388258127|55=EUR/USD|270=1.11804|271=2000000|279=0|269=0|278=8388258128|55=EUR/USD|270=1.11803|271=2500000|279=0|269=0|278=8388258130|55=EUR/USD|270=1.11801|271=3500000|279=0|269=0|278=8388258131|55=EUR/USD|270=1.118|271=4000000|279=0|269=1|278=8388258143|55=EUR/USD|270=1.11821|271=500000|279=0|269=1|278=8388258144|55=EUR/USD|270=1.11822|271=4500000|279=0|269=1|278=8388258146|55=EUR/USD|270=1.11824|271=6000000|279=0|269=1|278=8388258149|55=EUR/USD|270=1.11827|271=6000000|279=2|278=8388255427|55=EUR/USD|279=2|278=8388255428|55=EUR/USD|279=2|278=8388255429|55=EUR/USD|279=2|278=8388246236|55=EUR/USD|279=2|278=8388255432|55=EUR/USD|279=2|278=8388256806|55=EUR/USD|279=2|278=8388255444|55=EUR/USD|279=2|278=8388255445|55=EUR/USD|279=2|278=8388255447|55=EUR/USD|279=2|278=8388255449|55=EUR/USD|279=2|278=8388254030|55=EUR/USD|279=2|278=8388255454|55=EUR/USD|10=248| 1195
212:I:N 20150303-23:15:20.997 : 8=FIX.4.4|9=576|35=X|34=212|49=77MARKETS|50=PRICE|52=20150303-23:15:20.956|56=1001083|268=10|279=0|269=1|278=8388264875|55=EUR/USD|270=1.11816|271=500000|279=0|269=1|278=8388264876|55=EUR/USD|270=1.11817|271=1000000|279=0|269=1|278=8388264878|55=EUR/USD|270=1.11819|271=3000000|279=0|269=1|278=8388264880|55=EUR/USD|270=1.11822|271=8500000|279=0|269=1|278=8388264882|55=EUR/USD|270=1.11824|271=3000000|279=0|269=1|278=8388264885|55=EUR/USD|270=1.11827|271=1000000|279=2|278=8388258143|55=EUR/USD|279=2|278=8388258144|55=EUR/USD|279=2|278=8388258146|55=EUR/USD|279=2|278=8388258149|55=EUR/USD|10=125| 632
213:I:N 20150303-23:15:21.260 : 8=FIX.4.4|9=202|35=X|34=213|49=77MARKETS|50=PRICE|52=20150303-23:15:21.220|56=1001083|268=3|279=0|269=0|278=8388267212|55=EUR/USD|270=1.11804|271=2500000|279=2|278=8388258126|55=EUR/USD|279=2|278=8388258127|55=EUR/USD|10=012| 258
214:I:N 20150303-23:15:21.997 : 8=FIX.4.4|9=390|35=X|34=214|49=77MARKETS|50=PRICE|52=20150303-23:15:21.956|56=1001083|268=7|279=0|269=0|278=8388270763|55=EUR/USD|270=1.11804|271=1500000|279=0|269=0|278=8388270764|55=EUR/USD|270=1.11803|271=3500000|279=0|269=1|278=8388270784|55=EUR/USD|270=1.11825|271=6000000|279=2|278=8388267212|55=EUR/USD|279=2|278=8388258128|55=EUR/USD|279=2|278=8388264882|55=EUR/USD|279=2|278=8388254031|55=EUR/USD|10=220| 446
215:I:N 20150303-23:15:22.270 : 8=FIX.4.4|9=231|35=X|34=215|49=77MARKETS|50=PRICE|52=20150303-23:15:22.230|56=1001083|268=3|279=0|269=0|278=8388272640|55=EUR/USD|270=1.11805|271=500000|279=0|269=0|278=8388272641|55=EUR/USD|270=1.11804|271=1000000|279=2|278=8388270763|55=EUR/USD|10=074| 287
216:I:N 20150303-23:15:22.997 : 8=FIX.4.4|9=547|35=X|34=216|49=77MARKETS|50=PRICE|52=20150303-23:15:22.956|56=1001083|268=10|279=0|269=0|278=8388275580|55=EUR/USD|270=1.11804|271=2000000|279=0|269=0|278=8388275581|55=EUR/USD|270=1.11803|271=2500000|279=0|269=1|278=8388275599|55=EUR/USD|270=1.11822|271=9500000|279=0|269=1|278=8388275600|55=EUR/USD|270=1.11824|271=3000000|279=0|269=1|278=8388275601|55=EUR/USD|270=1.11825|271=3000000|279=2|278=8388272641|55=EUR/USD|279=2|278=8388270764|55=EUR/USD|279=2|278=8388264880|55=EUR/USD|279=2|278=8388255450|55=EUR/USD|279=2|278=8388270784|55=EUR/USD|10=021| 603
217:I:N 20150303-23:15:23.273 : 8=FIX.4.4|9=231|35=X|34=217|49=77MARKETS|50=PRICE|52=20150303-23:15:23.233|56=1001083|268=3|279=0|269=1|278=8388277455|55=EUR/USD|270=1.11821|271=500000|279=0|269=1|278=8388277456|55=EUR/USD|270=1.11822|271=9000000|279=2|278=8388275599|55=EUR/USD|10=118| 287
218:I:N 20150303-23:15:23.996 : 8=FIX.4.4|9=733|35=X|34=218|49=77MARKETS|50=PRICE|52=20150303-23:15:23.955|56=1001083|268=14|279=0|269=0|278=8388280773|55=EUR/USD|270=1.11806|271=500000|279=0|269=0|278=8388280774|55=EUR/USD|270=1.11805|271=1500000|279=0|269=0|278=8388280775|55=EUR/USD|270=1.11804|271=1000000|279=0|269=0|278=8388280776|55=EUR/USD|270=1.11803|271=6500000|279=0|269=0|278=8388280777|55=EUR/USD|270=1.11802|271=1500000|279=0|269=1|278=8388280792|55=EUR/USD|270=1.11819|271=4000000|279=0|269=1|278=8388280793|55=EUR/USD|270=1.1182|271=1500000|279=2|278=8388258125|55=EUR/USD|279=2|278=8388272640|55=EUR/USD|279=2|278=8388275580|55=EUR/USD|279=2|278=8388275581|55=EUR/USD|279=2|278=8388255431|55=EUR/USD|279=2|278=8388264878|55=EUR/USD|279=2|278=8388255448|55=EUR/USD|10=125| 789
219:I:N 20150303-23:15:24.278 : 8=FIX.4.4|9=202|35=X|34=219|49=77MARKETS|50=PRICE|52=20150303-23:15:24.237|56=1001083|268=3|279=0|269=1|278=8388282309|55=EUR/USD|270=1.11822|271=9500000|279=2|278=8388277455|55=EUR/USD|279=2|278=8388277456|55=EUR/USD|10=053| 258
220:I:N 20150303-23:15:24.997 : 8=FIX.4.4|9=264|35=X|34=220|49=77MARKETS|50=PRICE|52=20150303-23:15:24.957|56=1001083|268=4|279=0|269=0|278=8388286620|55=EUR/USD|270=1.11803|271=3500000|279=0|269=0|278=8388286621|55=EUR/USD|270=1.11802|271=4500000|279=2|278=8388280776|55=EUR/USD|279=2|278=8388280777|55=EUR/USD|10=091| 320
221:I:N 20150303-23:15:25.281 : 8=FIX.4.4|9=263|35=X|34=221|49=77MARKETS|50=PRICE|52=20150303-23:15:25.241|56=1001083|268=4|279=0|269=1|278=8388288711|55=EUR/USD|270=1.1182|271=2000000|279=0|269=1|278=8388288712|55=EUR/USD|270=1.11822|271=9000000|279=2|278=8388280793|55=EUR/USD|279=2|278=8388282309|55=EUR/USD|10=025| 319
132:O:N 20150303-23:15:25.402 : 8=FIX.4.4|9=70|35=0|49=1001083|56=77MARKETS|34=132|57=PRICE|52=20150303-23:15:25.402|10=045| 125
222:I:N 20150303-23:15:25.997 : 8=FIX.4.4|9=514|35=X|34=222|49=77MARKETS|50=PRICE|52=20150303-23:15:25.956|56=1001083|268=9|279=0|269=0|278=8388292213|55=EUR/USD|270=1.11803|271=6500000|279=0|269=0|278=8388292214|55=EUR/USD|270=1.11802|271=1500000|279=0|269=1|278=8388292231|55=EUR/USD|270=1.11821|271=1000000|279=0|269=1|278=8388292232|55=EUR/USD|270=1.11822|271=8000000|279=0|269=1|278=8388292233|55=EUR/USD|270=1.11823|271=3000000|279=2|278=8388286620|55=EUR/USD|279=2|278=8388286621|55=EUR/USD|279=2|278=8388288712|55=EUR/USD|279=2|278=8388275600|55=EUR/USD|10=007| 570
223:I:N 20150303-23:15:26.551 : 8=FIX.4.4|9=579|35=X|34=223|49=77MARKETS|50=PRICE|52=20150303-23:15:26.510|56=1001083|268=11|279=0|269=1|278=8388296648|55=EUR/USD|270=1.11819|271=1000000|279=0|269=1|278=8388296650|55=EUR/USD|270=1.11821|271=1500000|279=0|269=1|278=8388296651|55=EUR/USD|270=1.11822|271=4000000|279=0|269=1|278=8388296653|55=EUR/USD|270=1.11824|271=3000000|279=0|269=1|278=8388296656|55=EUR/USD|270=1.11827|271=6000000|279=2|278=8388264875|55=EUR/USD|279=2|278=8388264876|55=EUR/USD|279=2|278=8388280792|55=EUR/USD|279=2|278=8388292231|55=EUR/USD|279=2|278=8388292232|55=EUR/USD|279=2|278=8388264885|55=EUR/USD|10=235| 635
224:I:N 20150303-23:15:27.288 : 8=FIX.4.4|9=263|35=X|34=224|49=77MARKETS|50=PRICE|52=20150303-23:15:27.247|56=1001083|268=4|279=0|269=1|278=8388302605|55=EUR/USD|270=1.1182|271=1500000|279=0|269=1|278=8388302607|55=EUR/USD|270=1.11822|271=4500000|279=2|278=8388288711|55=EUR/USD|279=2|278=8388296651|55=EUR/USD|10=022| 319
225:I:N 20150303-23:15:27.996 : 8=FIX.4.4|9=546|35=X|34=225|49=77MARKETS|50=PRICE|52=20150303-23:15:27.955|56=1001083|268=10|279=0|269=0|278=8388308057|55=EUR/USD|270=1.11803|271=3500000|279=0|269=0|278=8388308058|55=EUR/USD|270=1.11802|271=4500000|279=0|269=1|278=8388308073|55=EUR/USD|270=1.11821|271=500000|279=0|269=1|278=8388308075|55=EUR/USD|270=1.11823|271=1000000|279=0|269=1|278=8388308076|55=EUR/USD|270=1.11824|271=6000000|279=2|278=8388292213|55=EUR/USD|279=2|278=8388292214|55=EUR/USD|279=2|278=8388296650|55=EUR/USD|279=2|278=8388292233|55=EUR/USD|279=2|278=8388296653|55=EUR/USD|10=203| 602
226:I:N 20150303-23:15:28.296 : 8=FIX.4.4|9=264|35=X|34=226|49=77MARKETS|50=PRICE|52=20150303-23:15:28.255|56=1001083|268=4|279=0|269=1|278=8388310378|55=EUR/USD|270=1.11821|271=1000000|279=0|269=1|278=8388310379|55=EUR/USD|270=1.11822|271=4000000|279=2|278=8388308073|55=EUR/USD|279=2|278=8388302607|55=EUR/USD|10=058| 320
227:I:N 20150303-23:15:28.996 : 8=FIX.4.4|9=673|35=X|34=227|49=77MARKETS|50=PRICE|52=20150303-23:15:28.955|56=1001083|268=13|279=0|269=0|278=8388316043|55=EUR/USD|270=1.11806|271=1000000|279=0|269=0|278=8388316044|55=EUR/USD|270=1.11805|271=1000000|279=0|269=0|278=8388316045|55=EUR/USD|270=1.11804|271=2000000|279=0|269=0|278=8388316046|55=EUR/USD|270=1.11803|271=4000000|279=0|269=0|278=8388316047|55=EUR/USD|270=1.11802|271=3000000|279=0|269=1|278=8388316063|55=EUR/USD|270=1.11822|271=5000000|279=2|278=8388280773|55=EUR/USD|279=2|278=8388280774|55=EUR/USD|279=2|278=8388280775|55=EUR/USD|279=2|278=8388308057|55=EUR/USD|279=2|278=8388308058|55=EUR/USD|279=2|278=8388310379|55=EUR/USD|279=2|278=8388308075|55=EUR/USD|10=103| 729
228:I:N 20150303-23:15:29.795 : 8=FIX.4.4|9=232|35=X|34=228|49=77MARKETS|50=PRICE|52=20150303-23:15:29.755|56=1001083|268=3|279=0|269=0|278=8388319436|55=EUR/USD|270=1.11792|271=5000000|279=0|269=0|278=8388319437|55=EUR/USD|270=1.11791|271=3000000|279=2|278=8388254020|55=EUR/USD|10=156| 288
229:I:N 20150303-23:15:30.114 : 8=FIX.4.4|9=264|35=X|34=229|49=77MARKETS|50=PRICE|52=20150303-23:15:30.074|56=1001083|268=4|279=0|269=0|278=8388321910|55=EUR/USD|270=1.11803|271=3000000|279=0|269=0|278=8388321911|55=EUR/USD|270=1.11802|271=4000000|279=2|278=8388316046|55=EUR/USD|279=2|278=8388316047|55=EUR/USD|10=041| 320
230:I:N 20150303-23:15:30.303 : 8=FIX.4.4|9=264|35=X|34=230|49=77MARKETS|50=PRICE|52=20150303-23:15:30.262|56=1001083|268=4|279=0|269=0|278=8388322787|55=EUR/USD|270=1.11803|271=2500000|279=0|269=0|278=8388322788|55=EUR/USD|270=1.11802|271=4500000|279=2|278=8388321910|55=EUR/USD|279=2|278=8388321911|55=EUR/USD|10=059| 320
231:I:N 20150303-23:15:30.996 : 8=FIX.4.4|9=264|35=X|34=231|49=77MARKETS|50=PRICE|52=20150303-23:15:30.955|56=1001083|268=4|279=0|269=0|278=8388325671|55=EUR/USD|270=1.11803|271=5500000|279=0|269=0|278=8388325672|55=EUR/USD|270=1.11802|271=1500000|279=2|278=8388322787|55=EUR/USD|279=2|278=8388322788|55=EUR/USD|10=085| 320
